:020000040000FA
:20000000A5C00000BFC00000BDC00000BBC00000B9C00000B7C00000B5C00000B3C000002C
:20002000B1C00000AFC00000ADC0000025C40000A9C00000A7C00000A5C00000A3C00000F2
:20004000A1C000009FC000009DC000009BC0000099C0000097C0000095C00000E2C1000080
:2000600091C000008FC000008DC000008BC0000089C0000087C0000085C0000083C0000030
:2000800081C000007FC000007DC000007BC0000079C0000077C000000600FF0901A101093E
:2000A00002150025FF7508954081020903150025FF750895409102C012011001000000081A
:2000C0004228010001000102000109022200010100C0320904000001030000000921110142
:2000E00000012220000705810340000104030904340352006F0062006F00740067007200C2
:200100006F0075007000200028006D0075006C007400690070006C006F002E006F007200BE
:2001200067002900000024034400750069006E006F0042006F0074002000760032002E00EE
:2001400033002D00480049004400000011241FBECFEFD2E0DEBFCDBF11E0A0E0B1E0EAE6ED
:20016000F4E102C005900D92AE30B107D9F712E0AEE0B1E001C01D92A832B107E1F7F0D1A2
:200180000C94330A3DCF9C01DC01AE59BF4FED91FC91119741911196FC93EE93805A9F4FE3
:2001A000E817F90711F42D933C939FB7F894F901EC59FF4F8081815080839FBF842F0895BA
:2001C000FF920F931F938B019C01F42E9695879577956795FF2029F060587B47814E9F4F31
:2001E00004C0605C7D4B804F9F4FA90198010E94F409215030403093CD002093CC0086E0C2
:200200008093CA00FF2011F480E001C082E08093C80088E18093C900539A5A9A1F910F9109
:20022000FF9008950895089580910B0190910C01009729F0019790930C0180930B010895D9
:20024000CF93DF93E9018881813A09F0C2C05C9A8EE180934F018981813069F48FEF809330
:20026000500180E090E05E98019623E0883E9207D1F75E9AD3C08230D1F48091C80085FF47
:20028000FCCF85E58093CE009A818091C80085FFFCCF9093CE009B818091C80085FFFCCFD0
:2002A0009093CE008091C80085FFFCCF43C08330E9F48091C80085FFFCCF84E68093CE001F
:2002C0009A818091C80085FFFCCF9093CE009B818091C80085FFFCCF9093CE008091C800DC
:2002E00085FFFCCF86E48093CE0098C0843071F4F90190E022818091C80085FFFCCF20930B
:20030000CE009F5F31969032A9F788C0853029F48091C80085FFFCCF0DC0863069F48091B5
:20032000C80085FFFCCF81E58093CE008091C80085FFFCCF80E2D7CF873019F41092500178
:200340006DC0883009F06AC08C8190E0A0E0B0E02227382F492F5A2F8B8190E0A0E0B0E0CB
:20036000DC0199278827282B392B4A2B5B2B8D8190E0A0E0B0E0282B392B4A2B5B2B8A8134
:2003800090E0A0E0B0E0B82FAA2799278827282B392B4A2B5B2B1092C9001092C80010928D
:2003A000CA001092CD001092CC0053985A98E0E0203082EC380781E0480780E0580709F490
:2003C000E1E0CA01B9014E2FFBDE88E98093C90025C0813B19F5E0911602F0911702898158
:2003E0008083E0911602F0911702CF01019690931702809316028651924021F486EB91E069
:20040000928381838FB7F89490911A029F5F90931A028FBF5C9A8EE180934F01DF91CF9191
:2004200008951F920F920FB60F9211242F938F939F93EF93FF939091CE00809150018F3FE9
:2004400029F45D9A8EE180934E0122C080911F028430F1F4E091B101F091B2019083E0912F
:20046000B101F091B201CF0101969093B2018093B101815B914021F481E591E092838183E2
:200480009FB7F8948091B5018F5F8093B5019FBFFF91EF919F918F912F910F900FBE0F9073
:2004A0001F9018950F931F93CF93DF93FB01E80110828FB7F8949091B5018FBF9923C9F0D5
:2004C00080E4D9011D928A95E9F7890181EBF901808381E591E057DED80111968C935D9A9B
:2004E0008EE180934E0180E490E09983888381E003C01982188280E0DF91CF911F910F9157
:20050000089580E091E035C680E091E0FAD5E2EEF0E0808184608083089584B7877F84BF29
:2005200088E10FB6F89480936000109260000FBE8AB180638AB98BB180638BB960E072EC5D
:2005400081E090E041E03CDE88E98093C90081E085BF15BE84E085BD80D1569A5E9A08954E
:200560001F93DBDF8BB180638BB988EE93E020E931E0F9013197F1F70197D9F78BB18F7C50
:200580008BB988EE93E020E931E0F9013197F1F70197D9F78BB180638BB988EE93E020E9AD
:2005A00031E0F9013197F1F70197D9F78BB18F7C8BB92FB7F89486EB91E0909317028093EA
:2005C000160290931902809318022FBF2FB7F89481E591E09093B2018093B1019093B401EE
:2005E0008093B3012FBF7894109250011EE18FB7F89490911A028FBF992369F086EB91E0F4
:20060000C2DD982F8091C80085FFFCCF9093CE005C9A10934F0180914E01882351F0809115
:200620004E01815080934E0180914E01882309F45D9880914F01882351F080914F018150BC
:2006400080934F0180914F01882309F45C9880E091E09DD489D4CBCFDA019330B1F09430FE
:2006600028F4913041F0923079F50AC0913211F1923251F524C022E130E0E8EBF0E028C021
:2006800022E230E0EAECF0E023C0813049F0813018F08230C9F40AC0ECEEF0E0849103C05F
:2006A000E0EFF0E08491282F30E012C0E6E2F1E08491F9CF29E030E0ECEDF0E009C020E24A
:2006C00030E0E8E9F0E004C020E030E0E0E0F0E0ED93FC93C9010895382F282F2CC0209332
:2006E000E900231721F4762F942F50E006C07091EC009091ED005091F00091FF1BC080911C
:20070000EB008E7F8093EB008091ED0082708093ED008091EB0081608093EB007093EC0029
:200720009093ED005093F0008091EE0087FD02C080E008952F5F253090F23093E90081E022
:2007400008958091200288239CF404C080911F028823B9F08091E80082FFF8CF8091E8000A
:200760008B778093E800089580911F02882349F08091E80080FFF8CF8091E8008E77809379
:20078000E80008954091E4005091E50024E68091EC0080FF05C08091E80080FF05C022C0EF
:2007A0008091E80082FD1EC080911F02882311F482E00895853011F483E008958091EB004C
:2007C00085FF02C081E008958091E4009091E50084179507E1F2222311F484E00895215014
:2007E000AC01D5CF80E0089541D043D08091D800982F9F779093D80080688093D8008091E2
:20080000D8008F7D8093D80084E089BD89B5826089BD09B400FEFDCF10921F0210921D02EE
:2008200010921C0210921B0280E060E042E054DF8091E1008E7F8093E1008091E20081607D
:200840008093E2008091E20088608093E2008091E0008E7F8093E0000895E3E6F0E08081AB
:200860008E7F808381E080931E02BECF1092E20008951092E10008951F920F920FB60F924E
:2008800011242F933F934F935F936F937F938F939F93AF93BF93EF93FF938091E10082FF38
:2008A0000AC08091E20082FF06C08091E1008B7F8093E100B9DC8091E10080FF17C0809156
:2008C000E20080FF13C08091E2008E7F8093E2008091E20080618093E2008091D80080625B
:2008E0008093D80019BC10921F029DDC8091E10084FF2EC08091E20084FF2AC084E089BD8F
:2009000089B5826089BD09B400FEFDCF8091D8008F7D8093D8008091E1008F7E8093E10017
:200920008091E2008F7E8093E2008091E20081608093E20080911D02882331F48091E30005
:2009400087FD02C081E001C084E080931F026ADC8091E10083FF22C08091E20083FF1EC0A8
:200960008091E100877F8093E10082E080931F0210921D028091E1008E7F8093E100809130
:20098000E2008E7F8093E2008091E20080618093E20080E060E042E09FDE95D1FF91EF91F5
:2009A000BF91AF919F918F917F916F915F914F913F912F910F900FBE0F901F9018950F93DE
:2009C0001F93DF93CF93CDB7DEB7AC970FB6F894DEBF0FBECDBF8091F100809320028091A6
:2009E000F100809321028091F1009091F100E2E2F2E080932202909323028091F100909184
:200A0000F1008093240293838091F1009091F10080932602958375DD8091E80083FF3AC167
:200A20008091200230912102353009F487C0363040F43130C9F1313070F0333009F02AC139
:200A400033C0383009F4F8C0393009F407C1363009F020C199C0803821F0823809F01AC168
:200A600008C090911B0280911C02882399F0926011C08091240287708093E9008091EB0024
:200A800090E025E0969587952A95E1F7982F91701092E9008091E800877F8093E800909393
:200AA000F1001092F100D3C0882319F0823009F0F1C090E08F719070009721F0029709F065
:200AC000E9C00CC080912202813009F0E3C010921C02333069F580931C022AC0809122024E
:200AE000882331F520912402277009F4D3C02093E9008091EB0080FF1BC0333021F48091AC
:200B0000EB00806213C08091EB0080618093EB0081E090E002C0880F991F2A95E2F78093CD
:200B2000EA001092EA008091EB0088608093EB001092E9008091E800877F8CC0882309F0E3
:200B4000A9C0109122021F770FB7F8948091E800877F8093E800F5DD8091E80080FFFCCF70
:200B60008091E3008078812B8093E3008091E30080688093E300112311F482E001C083E056
:200B800080931F020FBF86C08058823008F082C0809122029091230223E08C3D920709F070
:200BA00033C083E08C838AE28B837FB7F894DE0115966EE040E050E011E2E62FF0E01093F1
:200BC0005700849140FF03C082958F706F5F8F70282F30E08A3018F0C901C79602C0C901E8
:200BE000C0968D939D934F5F5F4F4431510529F77FBF8091E800877F8093E800CE01039668
:200C00006AE270E061D012C060912402AE014F5F5F4F22DDBC01009709F43CC08091E800CE
:200C2000877F8093E80089819A81EBD08091E8008B778093E8002EC0803861F58091E800E8
:200C4000877F8093E80080911D028093F1008091E8008E778093E80074DD1CC08823D1F4C9
:200C6000909122029230B0F48091E800877F8093E80090931D0265DD80911D02882331F44B
:200C80008091E30087FD02C081E001C084E080931F023ADC8091E80083FF0AC08091EB0009
:200CA00080628093EB008091E800877F8093E800AC960FB6F894DEBF0FBECDBFCF91DF9101
:200CC0001F910F91089508959C0140912602509127024617570718F4F90190E03DC0611546
:200CE000710511F0AB01F8CF8091E8008E778093E80040E050E0F0CF80911F028823F1F143
:200D00008530F1F18091E80083FF02C081E008958091E80082FD2CC08091E80080FF1CC049
:200D20008091F200282F30E007C081918093F100415050402F5F3F4F4115510519F0283022
:200D4000310598F390E02830310509F491E08091E8008E778093E8004115510569F69923A6
:200D600059F606C080911F02882341F0853041F08091E80082FFF6CF80E0089582E008952F
:200D800083E008959C016115710529F48091E8008B778093E800F90120C080911F02882300
:200DA00061F1853061F18091E80083FF02C081E008958091E80082FFF0CF06C08091F1009E
:200DC00081936150704021F08091F2008823B1F78091E8008B778093E80061157105E9F676
:200DE00006C080911F02882341F0853041F08091E80080FFF6CF80E0089582E0089583E09D
:200E000008959C0140912602509127024617570718F4F90190E040C06115710511F0AB01CB
:200E2000F8CF8091E8008E778093E80040E050E0F0CF80911F02882309F440C0853009F457
:200E40003FC08091E80083FF02C081E008958091E80082FD2DC08091E80080FF1DC080918D
:200E6000F200282F30E008C084918093F1003196415050402F5F3F4F4115510519F0283027
:200E8000310590F390E02830310509F491E08091E8008E778093E8004115510551F6992385
:200EA00041F606C080911F02882341F0853041F08091E80082FFF6CF80E0089582E0089506
:200EC00083E00895BF92CF92DF92EF92FF920F931F93CF93DF93182F092F7B016A0152DC21
:200EE000B82E8823B1F5812F902F9C01E901C114D10439F0F60180819181E81AF90AC80F0C
:200F0000D91F00E010E022C08091E80085FD16C08091E8008E778093E800C114D10449F0FA
:200F2000F60180819181800F911F9183808385E011C01AD027DC882349F00CC08991809351
:200F4000F1000894E108F1080F5F1F4FE114F104D9F68B2DDF91CF911F910F91FF90EF90A7
:200F6000DF90CF90BF9008951F9380911F02882361F01091E9001092E9008091E80083FF47
:200F800001C01DDD17701093E9001F9108954F925F926F927F928F929F92AF92BF92CF920D
:200FA000DF92EF92FF920F931F93DF93CF9300D00F92CDB7DEB77C016DB67EB680911F02F6
:200FC000843009F085C0F70181818093E9008091E80085FF7DC05DB64EB647818DB79EB7F7
:200FE000841B91090FB6F8949EBF0FBE8DBF0DB71EB70F5F1F4F19821B821A82C02E912EFB
:20100000C80160E070E050E027D2C701BE016F5F7F4F40E098018E010E5F1F4F43DA882E35
:20102000F70181859285892B19F4AA24BB240BC020E0F70183859485892B09F021E081E03A
:201040002827A22EBB24F701058116810115110511F4DD2412C04A815B818C2D992DB8019A
:20106000E5D1DD24009711F0DD24D394F7014781C8016C2D792D50E0E6D18A819B81892B2F
:20108000F9F0882021F4DD2011F4AB28C9F0F701818592859487838781818093E9008981DA
:2010A000882311F08093F1006A817B818C2D992D40E050E007DF8091E8008E778093E800EB
:2010C000852D942D9C010FB6F8943EBF0FBE2DBF0FB6F8947EBE0FBE6DBE0F900F900F9097
:2010E000CF91DF911F910F91FF90EF90DF90CF90BF90AF909F908F907F906F905F904F903C
:201100000895CF93DF93DC010896FC0185E0EF0119928A95E9F781E018968C93189784EF97
:2011200091E01A969C938E93199711963C91119712966D917C91139714968C91882311F49E
:2011400040E001C044E020E088E090E003C02F5F880F991F86179707D0F342602295207F1C
:20116000422B832F61ECB8DA811181E0DF91CF9108956F927F928F929F92AF92BF92CF92BA
:20118000DF92EF92FF920F931F93DF93CF9300D00F92CDB7DEB76C016DB67EB68091E8005D
:2011A00083FF0BC1F601808190E020912402309125022817390709F000C18091210283309A
:2011C00009F4ABC0843030F4813071F0823009F0F4C0DBC08A3009F4C0C08B3009F4AAC06A
:2011E000893009F0EAC055C080912002813A09F0E4C09DB68EB61B821A828091220210914D
:2012000023028983F60147818DB79EB7841B91090FB6F8949EBF0FBE8DBFEDB6FEB6089452
:20122000E11CF11CBE2CAF2CC70160E070E050E013D11150C601BE016F5F7F4F412F9701E8
:201240008E010E5F1F4F2ED9F601258136812115310529F04781C901B70150E0F4D0109264
:20126000E9008091E800877F8093E8006A817B818B2D9A2D29DD8091E8008B778093E80029
:20128000292D382DC9010FB6F8949EBF0FBE8DBF94C080912002813209F08FC09DB68EB6E9
:2012A0000091260210912702A0902202B09023028DB79EB7801B910B0FB6F8949EBF0FBEA7
:2012C0008DBFEDB6FEB60894E11CF11C8091E800877F8093E800C701B80154DD8091E80020
:2012E0008E778093E80080E090E0AA2011F081E090E0BA94E80EF91E081B190BC6016A2D82
:201300004B2D97010E942001892D982D9C010FB6F8943EBF0FBE2DBF50C080912002813ADD
:2013200009F04BC08091E800877F8093E800F60180853BC080912002813209F03EC08091CA
:20134000E800877F8093E800FCD990E080912202811191E0F601908730C080912002813243
:2013600061F58091E800877F8093E800EAD98091220290912302807076E0969587957A9543
:20138000E1F7F6019287818718C080912002813AA1F48091E800877F8093E800F60181850B
:2013A000928596958795969587958093F1008091E8008E778093E800C4D90FB6F8947EBE61
:2013C0000FBE6DBE0F900F900F90CF91DF911F910F91FF90EF90DF90CF90BF90AF909F907F
:2013E0008F907F906F900895A1E21A2EAA1BBB1BFD010DC0AA1FBB1FEE1FFF1FA217B307B1
:20140000E407F50720F0A21BB30BE40BF50B661F771F881F991F1A9469F7609570958095D4
:2014200090959B01AC01BD01CF010895FB01DC0104C08D910190801921F441505040C8F739
:20144000881B990B0895FB01DC0102C001900D9241505040D8F70895DC0101C06D93415021
:181460005040E0F70895F894FFCF00014000000E014000000000000086
:20300000A3C00000BCC00000BAC00000B8C00000B6C00000B4C00000B2C00000B0C0000013
:20302000AEC00000ACC00000AAC0000065C4000029C40000A4C00000A2C00000A0C0000010
:203040009EC000009CC000009AC0000098C0000096C0000094C0000092C0000015C1000032
:203060008EC000008CC000008AC0000088C0000086C0000084C0000082C0000080C0000018
:203080007EC000007CC000007AC0000078C0000076C0000074C000001201100102000008AC
:2030A000EB034B2001000102DC0109023E00020100C032090400000102020100052400015B
:2030C00010042402060524060001070582030800FF09040100020A0000000705040240007C
:2030E00001070583024000010403090430034D0075006C007400690070006C006F00200040
:2031000028006D0075006C007400690070006C006F002E006F007200670029000000280347
:203120004400750069006E006F0042006F0074002000560032002E003300200028004300D7
:20314000440043002900000011241FBECFEFD2E0DEBFCDBF11E0A0E0B1E0E6EEFFE302C09A
:2031600005900D92A631B107D9F712E0A6E1B1E001C01D92AF32B107E1F7FBD032C740CFFE
:203180009C01DC01AE57BF4FED91FC91119741911196FC93EE9380589F4FE817F90711F49C
:2031A0002D933C939FB7F894F901EC57FF4F8081815080839FBF842F0895DF92EF92FF920D
:2031C0000F931F93FC018489813019F0823021F405C040E3D42E04C0DD2402C030E2D32E8C
:2031E0008389823011F488E0D82A8589873031F0883031F0863031F482E003C084E001C0BE
:2032000086E0D82A1092C9001092C8001092CA00E784F0880189128980E0E81681EEF80632
:2032200080E0080780E0180719F420E130E00FC0C801B701969587957795679560587B4769
:20324000814E9F4FA8019701AAD6215030403093CD002093CC00D092CA0080E0E81681EE07
:20326000F80680E0080780E0180711F082E001C080E08093C80088E98093C9001F910F9166
:20328000FF90EF90DF9008951F920F920FB60F9211242F938F939F93EF93FF939091CE000E
:2032A0008EB38430F1F4E0919901F0919A019083E0919901F0919A01CF01019690939A01AE
:2032C000809399018959914021F489E191E0928381839FB7F89480919D018F5F80939D0155
:2032E0009FBFFF91EF919F918F912F910F900FBE0F901F901895FC01858580FF09C080E03A
:2033000090E05E980196F3E0883E9F07D1F75E9A089580E091E0D9C580E091E08CC584B748
:20332000877F84BF28E10FB6F89420936000109260000FBE81E085BF82E085BF87E690E0E0
:203340009093CD008093CC0086E08093CA001092C8002093C900539A5A9A8AB180638AB933
:203360008BB18F7C8BB983D284E085BD569A5E9A08950F931F93CF93DF93D1DF2FB7F894F8
:203380008EE991E090931F0280931E0290932102809320022FBF2FB7F89489E191E09093F5
:2033A0009A018093990190939C0180939B012FBF7894CEE9D1E003E08FB7F89490912202FA
:2033C0008FBF903809F180E091E0ABD497FD1CC0E0911E02F0911F028083E0911E02F091D5
:2033E0001F02CF01019690931F0280931E028E51924011F4D283C1839FB7F8948091220268
:203400008F5F809322029FBF8FB7F89410919D018FBFA89902C0113678F1A89A80919D0126
:20342000882361F05D9A0093160108C089E191E0A7DE682F80E091E0DAD411501123B1F774
:2034400080911601882351F08091160181508093160180911601882309F45D988091170147
:20346000882351F08091170181508093170180911701882309F45C988FB7F894909122025F
:203480008FBF992369F08EE991E07ADE982F8091C80085FFFCCF9093CE005C9A0093170108
:2034A00080E091E095D42AD487CFDA01923049F0933061F09130F9F4E8E9F0E322E130E02F
:2034C0001EC0EAEAF0E32EE330E019C0813049F0813018F0823079F408C0E8EEF0E3849125
:2034E00007C0ECEEF0E3849103C0EEE1F1E38491282F30E004C0E0E0F0E020E030E0ED937D
:20350000FC93C901089528E030E040E003C04F5F220F331F28173907D0F3842F8295807F7E
:2035200008958093E9008091EB0081608093EB001092ED006093EC004093ED008091EE00EA
:20354000881F8827881F08951092F40090E09093E9001092F0001092E8001092ED00809103
:20356000EB008E7F8093EB009F5F953081F708958091270288238CF403C08EB38823B1F0C8
:203580008091E80082FFF9CF8091E8008B778093E80008958EB3882349F08091E80080FFB9
:2035A000F9CF8091E8008E778093E800089594E68091EC0080FF05C08091E80080FF05C0B5
:2035C00023C08091E80082FD1FC08EB3882311F482E008958EB3853011F483E008958091B5
:2035E000EB0085FF02C081E008958091E10082FFDFCF8091E1008B7F8093E100992311F4CA
:2036000084E008959150D4CF80E008959C0140912D0250912E024617570718F4F90120E0B9
:2036200038C06115710511F0AB01F8CF8091E8008E778093E80040E050E0F0CF8091E80031
:2036400083FF02C081E008958091E80082FD2DC08EB3882381F18EB3853079F18091E8000C
:2036600080FF17C09091F20006C081918093F100415050409F5F4115510511F09830A8F3D6
:2036800020E0983009F421E08091E8008E778093E8004115510591F6222381F606C08EB375
:2036A000882349F08EB3853041F08091E80082FFF6CF80E0089582E0089583E008959C0127
:2036C00040912D0250912E024617570710F490E03BC06115710511F0AB01F9CF8091E80055
:2036E0008E778093E80040E050E0F1CF8091E80083FF02C081E008958091E80082FD30C017
:203700008EB3882399F18EB3853091F18091E80080FF1AC08091F20009C0F9012F5F3F4F87
:20372000E491E093F100415050408F5F4115510511F0883090F390E0883009F491E0809112
:20374000E8008E778093E8004115510579F6992369F606C08EB3882349F08EB3853041F039
:203760008091E80082FFF6CF80E0089582E0089583E008959C016115710529F48091E8006F
:203780008B778093E800F90120C08091E80083FF02C081E008958EB3882339F18EB385300B
:2037A00031F18091E80082FFF0CF06C08091F10081936150704021F08091F2008823B1F70A
:2037C0008091E8008B778093E80061157105E9F606C08EB3882349F08EB3853041F0809105
:2037E000E80080FFF6CF80E0089582E0089583E0089542D044D01EBA109225021092240212
:203800001092230284E089BD89B5826089BD09B400FEFDCF8091D800982F9F779093D80089
:2038200080688093D800809163008E7F809363008091D8008F7D8093D8008091E0008E7FE0
:203840008093E0008091E1008E7F8093E1008091E20081608093E2008091E100877F8093AE
:20386000E1008091E20088608093E2000895C1DF81E08093260208951092E200089510925E
:20388000E10008951F920F920FB60F9211241F932F933F934F935F936F937F938F939F933B
:2038A000AF93BF93EF93FF93E9EEF0E0108117701082E0EFF0E08081877F80837894C3D0C7
:2038C000F894A9EEB0E01C92E0EFF0E08081886080831C93FF91EF91BF91AF919F918F915D
:2038E0007F916F915F914F913F912F911F910F900FBE0F901F9018951F920F920FB60F9289
:2039000011242F933F934F935F936F937F938F939F93AF93BF93EF93FF938091E10080FF89
:203920001BC08091E20080FF17C08091E1008E7F8093E1008091E2008E7F8093E20080916A
:20394000E20080618093E2008091D80080628093D80019BC1EBAD1D18091E10084FF29C04C
:203960008091E20084FF25C084E089BD89B5826089BD09B400FEFDCF8091D8008F7D80934D
:20398000D8008091E1008F7E8093E1008091E2008F7E8093E2008091E20081608093E2009E
:2039A00080912502882311F481E001C084E08EBBA4D18091E10083FF27C08091E20083FF0B
:2039C00023C08091E100877F8093E10082E08EBB109225028091E1008E7F8093E1008091A0
:2039E000E2008E7F8093E2008091E20080618093E200AADD80E060E042E093DD8091F00060
:203A000088608093F00079D18091E10082FF0AC08091E20082FF06C08091E1008B7F8093EB
:203A2000E1006BD1FF91EF91BF91AF919F918F917F916F915F914F913F912F910F900FBE9D
:203A40000F901F9018951F93DF93CF93CDB7DEB7AC970FB6F894DEBF0FBECDBFE7E2F2E0A7
:203A60008091F100819322E0EF32F207C9F78091270230912802353009F487C0363040F4EC
:203A80003130C9F1313070F0333009F01DC133C0383009F4EFC0393009F4FEC0363009F086
:203AA00013C192C0803821F0823809F00DC108C09091230280912402882399F0926011C05A
:203AC00080912B0287708093E9008091EB0090E025E0969587952A95E1F7982F91701092FC
:203AE000E9008091E800877F8093E8009093F1001092F100CAC0882319F0823009F0E4C0AF
:203B000090E08F719070009721F0029709F0DDC00CC080912902813009F0D7C0109224024D
:203B2000333069F5809324022AC080912902882331F520912B02277009F4C7C02093E900FF
:203B40008091EB0080FFC1C0333021F48091EB00806213C08091EB0080618093EB0081E004
:203B600090E002C0880F991F2A95E2F78093EA001092EA008091EB0088608093EB0010921F
:203B8000E9008091E800877F83C0882309F09CC0109129028091E800877F8093E800E8DC70
:203BA00004C08EB3882309F490C08091E80080FFF8CF812F8F7711F492E001C093E09EBB0F
:203BC00080688093E30081C08058823008F07CC08091290290912A0223E08C3D920799F58C
:203BE0005FB7F894DE0115964EE020E030E061E2E42FF0E060935700849120FF03C08295DD
:203C00008F704F5F982F9F70892F805D8A3308F0895F8C9311961C9211972F5F3F4F12960F
:203C20002431310529F75FBF8AE28B8383E08C838091E800877F8093E800CE0103966AE221
:203C400070E0E4DC11C060912B02AE014F5F5F4F2CDCBC010097C9F18091E800877F809332
:203C6000E80089819A812BDD8091E8008B778093E8002BC0803841F58091E800877F80934E
:203C8000E800809125028093F1008091E8008E778093E8006DDC19C08823B1F49091290249
:203CA000923098F48091E800877F8093E800909325025EDC80912502882311F483E001C02C
:203CC00084E08EBB29DB01C024DB8091E80083FF0AC08091EB0080628093EB008091E80059
:203CE000877F8093E800AC960FB6F894DEBF0FBECDBFCF91DF911F91089508951F938EB38D
:203D0000882361F01091E9001092E9008091E80083FF01C098DE17701093E9001F91089580
:203D20000895FC018EB3843021F587859089A189B2890097A105B105E1F085818093E9008E
:203D40008091E80082FF15C08091F200882319F42FEF3FEF04C08091F100282F30E08091CF
:203D6000F200882341F48091E8008B778093E80002C02FEF3FEFC9010895FC018EB3843014
:203D800011F587859089A189B2890097A105B105D1F081818093E9008091F2008823A9F09A
:203DA0009091E8008091E8008E778093E80095FD0CC0FDDB982F882349F48091E8008E771E
:203DC0008093E80003C092E001C090E0892F0895FC018EB3843051F487859089A189B2896C
:203DE0000097A105B10511F0CF01C7CF08951F93FC01162F8EB38430D9F487859089A189C7
:203E0000B2890097A105B10599F081818093E9008091E80085FD08C08091E8008E77809399
:203E2000E800C5DB882329F41093F10080E001C082E01F9108950F931F93CF93DF93EC01B9
:203E40000D96FC0189E0DF011D928A95E9F72A813B8109818C81882311F410E001C014E078
:203E6000C90151DB182B1260802F61E8412F59DB882329F12E813F810D818885882311F47C
:203E800010E001C014E0C9013EDB182B1260802F60E8412F46DB882391F02A853B85098534
:203EA0008C85882311F410E001C014E0C9012BDB182B1260802F61EC412F33DB01C080E07C
:203EC000DF91CF911F910F910895CF93DF93EC018091E80083FF60C0888190E020912B0272
:203EE00030912C022817390709F056C080912802813261F0823220F4803209F04DC019C0AD
:203F0000823269F1833209F047C038C080912702813A09F041C08091E800877F8093E800FD
:203F2000CE010F9667E070E071DB8091E8008B7713C080912702813279F58091E800877F02
:203F40008093E800CE010F9667E070E013DCCE0134D98091E8008E778093E8001DC08091A9
:203F600027028132C9F48091E800877F8093E800809129028D87CE01BED90DC080912702F1
:203F8000813251F48091E800877F8093E800CE0160912902C5DEECDADF91CF910895A1E2EB
:203FA0001A2EAA1BBB1BFD010DC0AA1FBB1FEE1FFF1FA217B307E407F50720F0A21BB30BA0
:203FC000E40BF50B661F771F881F991F1A9469F760957095809590959B01AC01BD01CF015F
:1C3FE0000895F894FFCF000340000004400000020800000000000000000000003D
:0400000500003000C7
:00000001FF
