:10000000A5C00000BFC00000BDC00000BBC0000014
:10001000B9C00000B7C00000B5C00000B3C0000008
:10002000B1C00000AFC00000ADC0000025C400009A
:10003000A9C00000A7C00000A5C00000A3C0000028
:10004000A1C000009FC000009DC000009BC0000038
:1000500099C0000097C0000095C00000E2C10000F8
:1000600091C000008FC000008DC000008BC0000058
:1000700089C0000087C0000085C0000083C0000068
:1000800081C000007FC000007DC000007BC0000078
:1000900079C0000077C000000600FF0901A1010936
:1000A00002150025FF7508954081020903150025FA
:1000B000FF750895409102C0120110010000000870
:1000C0004228010001000102000109022200010191
:1000D00000C03209040000010300000009211101E1
:1000E00000012220000705810340000104030904E8
:1000F000340352006F0062006F00740067007200EA
:100100006F0075007000200028006D0075006C0005
:100110007400690070006C006F002E006F007200A8
:1001200067002900000024034400750069006E0088
:100130006F0042006F0074002000760032002E0035
:1001400033002D00480049004400000011241FBE68
:10015000CFEFD2E0DEBFCDBF11E0A0E0B1E0EAE634
:10016000F4E102C005900D92AE30B107D9F712E06C
:10017000AEE0B1E001C01D92A832B107E1F7F0D1C5
:100180000C94330A3DCF9C01DC01AE59BF4FED9179
:10019000FC91119741911196FC93EE93805A9F4FD9
:1001A000E817F90711F42D933C939FB7F894F901E0
:1001B000EC59FF4F8081815080839FBF842F089529
:1001C000FF920F931F938B019C01F42E96958795B8
:1001D00077956795FF2029F060587B47814E9F4FA8
:1001E00004C0605C7D4B804F9F4FA90198010E9425
:1001F000F409215030403093CD002093CC0086E0AC
:100200008093CA00FF2011F480E001C082E0809357
:10021000C80088E18093C900539A5A9A1F910F91A0
:10022000FF9008950895089580910B0190910C011D
:10023000009729F0019790930C0180930B0108958A
:10024000CF93DF93E9018881813A09F0C2C05C9ABB
:100250008EE180934F018981813069F48FEF809323
:10026000500180E090E05E98019623E0883E92077E
:10027000D1F75E9AD3C08230D1F48091C80085FF57
:10028000FCCF85E58093CE009A818091C80085FFE0
:10029000FCCF9093CE009B818091C80085FFFCCF5E
:1002A0009093CE008091C80085FFFCCF43C083307F
:1002B000E9F48091C80085FFFCCF84E68093CE00EE
:1002C0009A818091C80085FFFCCF9093CE009B81DE
:1002D0008091C80085FFFCCF9093CE008091C8002C
:1002E00085FFFCCF86E48093CE0098C0843071F403
:1002F000F90190E022818091C80085FFFCCF209316
:10030000CE009F5F31969032A9F788C0853029F4DE
:100310008091C80085FFFCCF0DC0863069F48091C4
:10032000C80085FFFCCF81E58093CE008091C80096
:1003300085FFFCCF80E2D7CF873019F410925001AF
:100340006DC0883009F06AC08C8190E0A0E0B0E018
:100350002227382F492F5A2F8B8190E0A0E0B0E060
:10036000DC0199278827282B392B4A2B5B2B8D8181
:1003700090E0A0E0B0E0282B392B4A2B5B2B8A8140
:1003800090E0A0E0B0E0B82FAA2799278827282B73
:10039000392B4A2B5B2B1092C9001092C800109287
:1003A000CA001092CD001092CC0053985A98E0E009
:1003B000203082EC380781E0480780E0580709F4D4
:1003C000E1E0CA01B9014E2FFBDE88E98093C90044
:1003D00025C0813B19F5E0911602F0911702898141
:1003E0008083E0911602F0911702CF01019690935D
:1003F0001702809316028651924021F486EB91E019
:10040000928381838FB7F89490911A029F5F9093A3
:100410001A028FBF5C9A8EE180934F01DF91CF91DA
:1004200008951F920F920FB60F9211242F938F935E
:100430009F93EF93FF939091CE00809150018F3F57
:1004400029F45D9A8EE180934E0122C080911F02B3
:100450008430F1F4E091B101F091B2019083E09128
:10046000B101F091B201CF0101969093B201809356
:10047000B101815B914021F481E591E09283818318
:100480009FB7F8948091B5018F5F8093B5019FBFAE
:10049000FF91EF919F918F912F910F900FBE0F9031
:1004A0001F9018950F931F93CF93DF93FB01E801E3
:1004B00010828FB7F8949091B5018FBF9923C9F03E
:1004C00080E4D9011D928A95E9F7890181EBF90150
:1004D000808381E591E057DED80111968C935D9A77
:1004E0008EE180934E0180E490E09983888381E0DF
:1004F00003C01982188280E0DF91CF911F910F9184
:10050000089580E091E035C680E091E0FAD5E2EE12
:10051000F0E0808184608083089584B7877F84BF02
:1005200088E10FB6F89480936000109260000FBECF
:100530008AB180638AB98BB180638BB960E072EC59
:1005400081E090E041E03CDE88E98093C90081E0F1
:1005500085BF15BE84E085BD80D1569A5E9A089508
:100560001F93DBDF8BB180638BB988EE93E020E9CA
:1005700031E0F9013197F1F70197D9F78BB18F7C11
:100580008BB988EE93E020E931E0F9013197F1F77A
:100590000197D9F78BB180638BB988EE93E020E99E
:1005A00031E0F9013197F1F70197D9F78BB18F7CE1
:1005B0008BB92FB7F89486EB91E090931702809354
:1005C000160290931902809318022FBF2FB7F89448
:1005D00081E591E09093B2018093B1019093B401D1
:1005E0008093B3012FBF7894109250011EE18FB712
:1005F000F89490911A028FBF992369F086EB91E0ED
:10060000C2DD982F8091C80085FFFCCF9093CE006B
:100610005C9A10934F0180914E01882351F0809194
:100620004E01815080934E0180914E01882309F440
:100630005D9880914F01882351F080914F01815046
:1006400080934F0180914F01882309F45C9880E0EA
:1006500091E09DD489D4CBCFDA019330B1F09430BE
:1006600028F4913041F0923079F50AC0913211F1BD
:10067000923251F524C022E130E0E8EBF0E028C0EE
:1006800022E230E0EAECF0E023C0813049F0813032
:1006900018F08230C9F40AC0ECEEF0E0849103C097
:1006A000E0EFF0E08491282F30E012C0E6E2F1E0C4
:1006B0008491F9CF29E030E0ECEDF0E009C020E2D0
:1006C00030E0E8E9F0E004C020E030E0E0E0F0E015
:1006D000ED93FC93C9010895382F282F2CC0209347
:1006E000E900231721F4762F942F50E006C0709173
:1006F000EC009091ED005091F00091FF1BC08091B3
:10070000EB008E7F8093EB008091ED0082708093F0
:10071000ED008091EB0081608093EB007093EC0022
:100720009093ED005093F0008091EE0087FD02C0A1
:1007300080E008952F5F253090F23093E90081E04A
:1007400008958091200288239CF404C080911F02A8
:100750008823B9F08091E80082FFF8CF8091E8000B
:100760008B778093E800089580911F02882349F0D9
:100770008091E80080FFF8CF8091E8008E77809329
:10078000E80008954091E4005091E50024E680914E
:10079000EC0080FF05C08091E80080FF05C022C00A
:1007A0008091E80082FD1EC080911F02882311F411
:1007B00082E00895853011F483E008958091EB0084
:1007C00085FF02C081E008958091E4009091E500EA
:1007D00084179507E1F2222311F484E00895215053
:1007E000AC01D5CF80E0089541D043D08091D800AE
:1007F000982F9F779093D80080688093D80080913D
:10080000D8008F7D8093D80084E089BD89B582604F
:1008100089BD09B400FEFDCF10921F0210921D0287
:1008200010921C0210921B0280E060E042E054DF54
:100830008091E1008E7F8093E1008091E2008160F1
:100840008093E2008091E20088608093E2008091D2
:10085000E0008E7F8093E0000895E3E6F0E0808181
:100860008E7F808381E080931E02BECF1092E200D3
:1008700008951092E10008951F920F920FB60F9203
:1008800011242F933F934F935F936F937F938F9395
:100890009F93AF93BF93EF93FF938091E10082FF0B
:1008A0000AC08091E20082FF06C08091E1008B7F48
:1008B0008093E100B9DC8091E10080FF17C0809156
:1008C000E20080FF13C08091E2008E7F8093E200FF
:1008D0008091E20080618093E2008091D800806284
:1008E0008093D80019BC10921F029DDC8091E1001A
:1008F00084FF2EC08091E20084FF2AC084E089BD7D
:1009000089B5826089BD09B400FEFDCF8091D80011
:100910008F7D8093D8008091E1008F7E8093E100ED
:100920008091E2008F7E8093E2008091E2008160FE
:100930008093E20080911D02882331F48091E300CE
:1009400087FD02C081E001C084E080931F026ADC61
:100950008091E10083FF22C08091E20083FF1EC0EE
:100960008091E100877F8093E10082E080931F0205
:1009700010921D028091E1008E7F8093E1008091B2
:10098000E2008E7F8093E2008091E200806180939C
:10099000E20080E060E042E09FDE95D1FF91EF91C0
:1009A000BF91AF919F918F917F916F915F914F9187
:1009B0003F912F910F900FBE0F901F9018950F939E
:1009C0001F93DF93CF93CDB7DEB7AC970FB6F894F4
:1009D000DEBF0FBECDBF8091F100809320028091D9
:1009E000F100809321028091F1009091F100E2E208
:1009F000F2E080932202909323028091F100909183
:100A0000F1008093240293838091F1009091F10092
:100A100080932602958375DD8091E80083FF3AC1BB
:100A20008091200230912102353009F487C03630A0
:100A300040F43130C9F1313070F0333009F02AC15F
:100A400033C0383009F4F8C0393009F407C1363002
:100A500009F020C199C0803821F0823809F01AC10C
:100A600008C090911B0280911C02882399F092602B
:100A700011C08091240287708093E9008091EB007F
:100A800090E025E0969587952A95E1F7982F91704B
:100A90001092E9008091E800877F8093E8009093AE
:100AA000F1001092F100D3C0882319F0823009F0D0
:100AB000F1C090E08F719070009721F0029709F0DB
:100AC000E9C00CC080912202813009F0E3C010928D
:100AD0001C02333069F580931C022AC080912202E7
:100AE000882331F520912402277009F4D3C0209384
:100AF000E9008091EB0080FF1BC0333021F480912E
:100B0000EB00806213C08091EB0080618093EB006A
:100B100081E090E002C0880F991F2A95E2F7809348
:100B2000EA001092EA008091EB0088608093EB006D
:100B30001092E9008091E800877F8CC0882309F03B
:100B4000A9C0109122021F770FB7F8948091E80096
:100B5000877F8093E800F5DD8091E80080FFFCCF7F
:100B60008091E3008078812B8093E3008091E30003
:100B700080688093E300112311F482E001C083E0D8
:100B800080931F020FBF86C08058823008F082C059
:100B9000809122029091230223E08C3D920709F07C
:100BA00033C083E08C838AE28B837FB7F894DE01C5
:100BB00015966EE040E050E011E2E62FF0E0109371
:100BC0005700849140FF03C082958F706F5F8F70D4
:100BD000282F30E08A3018F0C901C79602C0C90139
:100BE000C0968D939D934F5F5F4F4431510529F718
:100BF0007FBF8091E800877F8093E800CE01039655
:100C00006AE270E061D012C060912402AE014F5FD1
:100C10005F4F22DDBC01009709F43CC08091E800E1
:100C2000877F8093E80089819A81EBD08091E800EA
:100C30008B778093E8002EC0803861F58091E800C2
:100C4000877F8093E80080911D028093F10080915E
:100C5000E8008E778093E80074DD1CC08823D1F40F
:100C6000909122029230B0F48091E800877F8093C7
:100C7000E80090931D0265DD80911D02882331F408
:100C80008091E30087FD02C081E001C084E0809391
:100C90001F023ADC8091E80083FF0AC08091EB00DC
:100CA00080628093EB008091E800877F8093E8006A
:100CB000AC960FB6F894DEBF0FBECDBFCF91DF91DB
:100CC0001F910F91089508959C0140912602509123
:100CD00027024617570718F4F90190E03DC0611547
:100CE000710511F0AB01F8CF8091E8008E77809309
:100CF000E80040E050E0F0CF80911F028823F1F13E
:100D00008530F1F18091E80083FF02C081E0089511
:100D10008091E80082FD2CC08091E80080FF1CC01B
:100D20008091F200282F30E007C081918093F1007C
:100D3000415050402F5F3F4F4115510519F0283069
:100D4000310598F390E02830310509F491E0809165
:100D5000E8008E778093E8004115510569F69923E4
:100D600059F606C080911F02882341F0853041F07A
:100D70008091E80082FFF6CF80E0089582E0089538
:100D800083E008959C016115710529F48091E800C4
:100D90008B778093E800F90120C080911F0288239F
:100DA00061F1853061F18091E80083FF02C081E04C
:100DB00008958091E80082FFF0CF06C08091F10095
:100DC00081936150704021F08091F2008823B1F747
:100DD0008091E8008B778093E80061157105E9F652
:100DE00006C080911F02882341F0853041F0809138
:100DF000E80080FFF6CF80E0089582E0089583E068
:100E000008959C01409126025091270246175707EA
:100E100018F4F90190E040C06115710511F0AB01C3
:100E2000F8CF8091E8008E778093E80040E050E0B2
:100E3000F0CF80911F02882309F440C0853009F467
:100E40003FC08091E80083FF02C081E00895809157
:100E5000E80082FD2DC08091E80080FF1DC08091D8
:100E6000F200282F30E008C084918093F100319681
:100E7000415050402F5F3F4F4115510519F0283028
:100E8000310590F390E02830310509F491E080912C
:100E9000E8008E778093E8004115510551F69923BB
:100EA00041F606C080911F02882341F0853041F051
:100EB0008091E80082FFF6CF80E0089582E00895F7
:100EC00083E00895BF92CF92DF92EF92FF920F934B
:100ED0001F93CF93DF93182F092F7B016A0152DCF8
:100EE000B82E8823B1F5812F902F9C01E901C11400
:100EF000D10439F0F60180819181E81AF90AC80F0E
:100F0000D91F00E010E022C08091E80085FD16C0E6
:100F10008091E8008E778093E800C114D10449F0F5
:100F2000F60180819181800F911F9183808385E0FC
:100F300011C01AD027DC882349F00CC08991809316
:100F4000F1000894E108F1080F5F1F4FE114F1046C
:100F5000D9F68B2DDF91CF911F910F91FF90EF90DC
:100F6000DF90CF90BF9008951F9380911F02882338
:100F700061F01091E9001092E9008091E80083FF90
:100F800001C01DDD17701093E9001F9108954F9265
:100F90005F926F927F928F929F92AF92BF92CF9209
:100FA000DF92EF92FF920F931F93DF93CF9300D0C6
:100FB0000F92CDB7DEB77C016DB67EB680911F0271
:100FC000843009F085C0F70181818093E900809128
:100FD000E80085FF7DC05DB64EB647818DB79EB7F0
:100FE000841B91090FB6F8949EBF0FBE8DBF0DB73D
:100FF0001EB70F5F1F4F19821B821A82C02E912EBF
:10100000C80160E070E050E027D2C701BE016F5F09
:101010007F4F40E098018E010E5F1F4F43DA882E0C
:10102000F70181859285892B19F4AA24BB240BC072
:1010300020E0F70183859485892B09F021E081E088
:101040002827A22EBB24F701058116810115110561
:1010500011F4DD2412C04A815B818C2D992DB801D9
:10106000E5D1DD24009711F0DD24D394F701478109
:10107000C8016C2D792D50E0E6D18A819B81892BA6
:10108000F9F0882021F4DD2011F4AB28C9F0F70134
:10109000818592859487838781818093E900898106
:1010A000882311F08093F1006A817B818C2D992D2A
:1010B00040E050E007DF8091E8008E778093E80001
:1010C000852D942D9C010FB6F8943EBF0FBE2DBF09
:1010D0000FB6F8947EBE0FBE6DBE0F900F900F90AE
:1010E000CF91DF911F910F91FF90EF90DF90CF9004
:1010F000BF90AF909F908F907F906F905F904F9038
:101100000895CF93DF93DC010896FC0185E0EF01A1
:1011100019928A95E9F781E018968C93189784EFD5
:1011200091E01A969C938E93199711963C91119782
:1011300012966D917C91139714968C91882311F4DB
:1011400040E001C044E020E088E090E003C02F5F71
:10115000880F991F86179707D0F342602295207F4A
:10116000422B832F61ECB8DA811181E0DF91CF91BE
:1011700008956F927F928F929F92AF92BF92CF927B
:10118000DF92EF92FF920F931F93DF93CF9300D0E4
:101190000F92CDB7DEB76C016DB67EB68091E800D8
:1011A00083FF0BC1F601808190E0209124023091F1
:1011B00025022817390709F000C1809121028330E8
:1011C00009F4ABC0843030F4813071F0823009F022
:1011D000F4C0DBC08A3009F4C0C08B3009F4AAC067
:1011E000893009F0EAC055C080912002813A09F0A7
:1011F000E4C09DB68EB61B821A82809122021091A5
:1012000023028983F60147818DB79EB7841B91091C
:101210000FB6F8949EBF0FBE8DBFEDB6FEB6089414
:10122000E11CF11CBE2CAF2CC70160E070E050E067
:1012300013D11150C601BE016F5F7F4F412F97013F
:101240008E010E5F1F4F2ED9F601258136812115A3
:10125000310529F04781C901B70150E0F4D010925F
:10126000E9008091E800877F8093E8006A817B81B4
:101270008B2D9A2D29DD8091E8008B778093E800F3
:10128000292D382DC9010FB6F8949EBF0FBE8DBF12
:1012900094C080912002813209F08FC09DB68EB635
:1012A0000091260210912702A0902202B090230202
:1012B0008DB79EB7801B910B0FB6F8949EBF0FBEE3
:1012C0008DBFEDB6FEB60894E11CF11C8091E800DC
:1012D000877F8093E800C701B80154DD8091E80062
:1012E0008E778093E80080E090E0AA2011F081E002
:1012F00090E0BA94E80EF91E081B190BC6016A2D7E
:101300004B2D97010E942001892D982D9C010FB62D
:10131000F8943EBF0FBE2DBF50C080912002813A8D
:1013200009F04BC08091E800877F8093E800F601C8
:1013300080853BC080912002813209F03EC08091BF
:10134000E800877F8093E800FCD990E0809122023A
:10135000811191E0F601908730C0809120028132A6
:1013600061F58091E800877F8093E800EAD9809159
:10137000220290912302807076E0969587957A9567
:10138000E1F7F6019287818718C080912002813AA7
:10139000A1F48091E800877F8093E800F6018185C1
:1013A000928596958795969587958093F100809183
:1013B000E8008E778093E800C4D90FB6F8947EBE1B
:1013C0000FBE6DBE0F900F900F90CF91DF911F91C8
:1013D0000F91FF90EF90DF90CF90BF90AF909F90D4
:1013E0008F907F906F900895A1E21A2EAA1BBB1BCD
:1013F000FD010DC0AA1FBB1FEE1FFF1FA217B307E1
:10140000E407F50720F0A21BB30BE40BF50B661FF6
:10141000771F881F991F1A9469F7609570958095BA
:1014200090959B01AC01BD01CF010895FB01DC014A
:1014300004C08D910190801921F441505040C8F7AB
:10144000881B990B0895FB01DC0102C001900D92ED
:1014500041505040D8F70895DC0101C06D934150D0
:0A1460005040E0F70895F894FFCF24
:0E146A0000014000000E0140000000000000E4
:00000001FF
