:020000040000FA
:20000000A3C00000BCC00000BAC00000B8C00000B6C00000B4C00000B2C00000B0C0000043
:20002000AEC00000ACC00000AAC0000061C4000025C40000A4C00000A2C00000A0C0000048
:200040009EC000009CC000009AC0000098C0000096C0000094C0000092C0000015C1000062
:200060008EC000008CC000008AC0000088C0000086C0000084C0000082C0000080C0000048
:200080007EC000007CC000007AC0000078C0000076C0000074C000001201100102000008DC
:2000A000EB034B2001000102DC0109023E00020100C032090400000102020100052400018B
:2000C00010042402060524060001070582030800FF09040100020A000000070504024000AC
:2000E00001070583024000010403090430034D0075006C007400690070006C006F00200070
:2001000028006D0075006C007400690070006C006F002E006F007200670029000000280377
:200120004400750069006E006F0042006F0074002000560032002E00330020002800430007
:20014000440043002900000011241FBECFEFD2E0DEBFCDBF11E0A0E0B1E0EEEDFFE002C0C6
:2001600005900D92A631B107D9F712E0A6E1B1E001C01D92AF32B107E1F7F7D02EC740CF36
:200180009C01DC01AE57BF4FED91FC91119741911196FC93EE9380589F4FE817F90711F4CC
:2001A0002D933C939FB7F894F901EC57FF4F8081815080839FBF842F0895DF92EF92FF923D
:2001C0000F931F93FC018489813019F0823021F405C040E3D42E04C0DD2402C030E2D32EBC
:2001E0008389823011F488E0D82A8589873031F0883031F0863031F482E003C084E001C0EE
:2002000086E0D82A1092C9001092C8001092CA00E784F0880189128980E0E81681EEF80662
:2002200080E0080780E0180719F420E130E00FC0C801B701969587957795679560587B4799
:20024000814E9F4FA8019701A6D6215030403093CD002093CC00D092CA0080E0E81681EE3B
:20026000F80680E0080780E0180711F082E001C080E08093C80088E98093C9001F910F9196
:20028000FF90EF90DF9008951F920F920FB60F9211242F938F939F93EF93FF939091CE003E
:2002A0008EB38430F1F4E0919901F0919A019083E0919901F0919A01CF01019690939A01DE
:2002C000809399018959914021F489E191E0928381839FB7F89480919D018F5F80939D0185
:2002E0009FBFFF91EF919F918F912F910F900FBE0F901F901895FC01858580FF09C080E06A
:2003000090E05E980196F3E0883E9F07D1F75E9A089580E091E0D5C580E091E088C584B780
:20032000877F84BF28E10FB6F89420936000109260000FBE87E690E09093CD008093CC008C
:2003400086E08093CA001092C8002093C900539A5A9A8AB180638AB98BB18F7C8BB983D252
:2003600084E085BD569A5E9A08950F931F93CF93DF93D5DF2FB7F8948EE991E090931F02D8
:2003800080931E0290932102809320022FBF2FB7F89489E191E090939A01809399019093E6
:2003A0009C0180939B012FBF7894CEE9D1E003E08FB7F894909122028FBF903809F180E025
:2003C00091E0ABD497FD1CC0E0911E02F0911F028083E0911E02F0911F02CF0101969093CA
:2003E0001F0280931E028E51924011F4D283C1839FB7F894809122028F5F809322029FBFC0
:200400008FB7F89410919D018FBFA89902C0113678F1A89A80919D01882361F05D9A009353
:20042000160108C089E191E0ABDE682F80E091E0DAD411501123B1F780911601882351F012
:200440008091160181508093160180911601882309F45D9880911701882351F08091170176
:2004600081508093170180911701882309F45C988FB7F894909122028FBF992369F08EE9CA
:2004800091E07EDE982F8091C80085FFFCCF9093CE005C9A0093170180E091E095D42AD4D6
:2004A00087CFDA01923049F0933061F09130F9F4E8E9F0E022E130E01EC0EAEAF0E02EE307
:2004C00030E019C0813049F0813018F0823079F408C0E8EEF0E0849107C0ECEEF0E0849168
:2004E00003C0EEE1F1E08491282F30E004C0E0E0F0E020E030E0ED93FC93C901089528E03B
:2005000030E040E003C04F5F220F331F28173907D0F3842F8295807F08958093E900809102
:20052000EB0081608093EB001092ED006093EC004093ED008091EE00881F8827881F08952A
:200540001092F40090E09093E9001092F0001092E8001092ED008091EB008E7F8093EB00D7
:200560009F5F953081F708958091270288238CF403C08EB38823B1F08091E80082FFF9CFAC
:200580008091E8008B778093E80008958EB3882349F08091E80080FFF9CF8091E8008E7765
:2005A0008093E800089594E68091EC0080FF05C08091E80080FF05C023C08091E80082FD50
:2005C0001FC08EB3882311F482E008958EB3853011F483E008958091EB0085FF02C081E0AE
:2005E00008958091E10082FFDFCF8091E1008B7F8093E100992311F484E008959150D4CF07
:2006000080E008959C0140912D0250912E024617570718F4F90120E038C06115710511F089
:20062000AB01F8CF8091E8008E778093E80040E050E0F0CF8091E80083FF02C081E0089504
:200640008091E80082FD2DC08EB3882381F18EB3853079F18091E80080FF17C09091F20015
:2006600006C081918093F100415050409F5F4115510511F09830A8F320E0983009F421E0A9
:200680008091E8008E778093E8004115510591F6222381F606C08EB3882349F08EB3853091
:2006A00041F08091E80082FFF6CF80E0089582E0089583E008959C0140912D0250912E0220
:2006C0004617570710F490E03BC06115710511F0AB01F9CF8091E8008E778093E80040E076
:2006E00050E0F1CF8091E80083FF02C081E008958091E80082FD30C08EB3882399F18EB3B0
:20070000853091F18091E80080FF1AC08091F20009C0F9012F5F3F4FE491E093F100415004
:2007200050408F5F4115510511F0883090F390E0883009F491E08091E8008E778093E800C4
:200740004115510579F6992369F606C08EB3882349F08EB3853041F08091E80082FFF6CF12
:2007600080E0089582E0089583E008959C016115710529F48091E8008B778093E800F901E7
:2007800020C08091E80083FF02C081E008958EB3882339F18EB3853031F18091E80082FF96
:2007A000F0CF06C08091F10081936150704021F08091F2008823B1F78091E8008B778093C8
:2007C000E80061157105E9F606C08EB3882349F08EB3853041F08091E80080FFF6CF80E0B7
:2007E000089582E0089583E0089542D044D01EBA10922502109224021092230284E089BD5D
:2008000089B5826089BD09B400FEFDCF8091D800982F9F779093D80080688093D800809146
:2008200063008E7F809363008091D8008F7D8093D8008091E0008E7F8093E0008091E1000F
:200840008E7F8093E1008091E20081608093E2008091E100877F8093E1008091E200886007
:200860008093E2000895C1DF81E08093260208951092E20008951092E10008951F920F927A
:200880000FB60F9211241F932F933F934F935F936F937F938F939F93AF93BF93EF93FF9393
:2008A000E9EEF0E0108117701082E0EFF0E08081877F80837894C3D0F894A9EEB0E01C923E
:2008C000E0EFF0E08081886080831C93FF91EF91BF91AF919F918F917F916F915F914F910E
:2008E0003F912F911F910F900FBE0F901F9018951F920F920FB60F9211242F933F934F93EE
:200900005F936F937F938F939F93AF93BF93EF93FF938091E10080FF1BC08091E20080FF17
:2009200017C08091E1008E7F8093E1008091E2008E7F8093E2008091E20080618093E2002F
:200940008091D80080628093D80019BC1EBAD1D18091E10084FF29C08091E20084FF25C0D9
:2009600084E089BD89B5826089BD09B400FEFDCF8091D8008F7D8093D8008091E1008F7E01
:200980008093E1008091E2008F7E8093E2008091E20081608093E20080912502882311F4BD
:2009A00081E001C084E08EBBA4D18091E10083FF27C08091E20083FF23C08091E100877F48
:2009C0008093E10082E08EBB109225028091E1008E7F8093E1008091E2008E7F8093E200C7
:2009E0008091E20080618093E200AADD80E060E042E093DD8091F00088608093F00079D13F
:200A00008091E10082FF0AC08091E20082FF06C08091E1008B7F8093E1006BD1FF91EF9123
:200A2000BF91AF919F918F917F916F915F914F913F912F910F900FBE0F901F9018951F934D
:200A4000DF93CF93CDB7DEB7AC970FB6F894DEBF0FBECDBFE7E2F2E08091F100819322E06C
:200A6000EF32F207C9F78091270230912802353009F487C0363040F43130C9F1313070F058
:200A8000333009F01DC133C0383009F4EFC0393009F4FEC0363009F013C192C0803821F0A3
:200AA000823809F00DC108C09091230280912402882399F0926011C080912B028770809331
:200AC000E9008091EB0090E025E0969587952A95E1F7982F91701092E9008091E800877F8C
:200AE0008093E8009093F1001092F100CAC0882319F0823009F0E4C090E08F7190700097C0
:200B000021F0029709F0DDC00CC080912902813009F0D7C010922402333069F5809324028A
:200B20002AC080912902882331F520912B02277009F4C7C02093E9008091EB0080FFC1C02D
:200B4000333021F48091EB00806213C08091EB0080618093EB0081E090E002C0880F991FAF
:200B60002A95E2F78093EA001092EA008091EB0088608093EB001092E9008091E800877FE8
:200B800083C0882309F09CC0109129028091E800877F8093E800E8DC04C08EB3882309F4DB
:200BA00090C08091E80080FFF8CF812F8F7711F492E001C093E09EBB80688093E30081C0CD
:200BC0008058823008F07CC08091290290912A0223E08C3D920799F55FB7F894DE011596AF
:200BE0004EE020E030E061E2E42FF0E060935700849120FF03C082958F704F5F982F9F70B6
:200C0000892F805D8A3308F0895F8C9311961C9211972F5F3F4F12962431310529F75FBFF9
:200C20008AE28B8383E08C838091E800877F8093E800CE0103966AE270E0E4DC11C0609148
:200C40002B02AE014F5F5F4F2CDCBC010097C9F18091E800877F8093E80089819A812BDD1F
:200C60008091E8008B778093E8002BC0803841F58091E800877F8093E80080912502809360
:200C8000F1008091E8008E778093E8006DDC19C08823B1F490912902923098F48091E80065
:200CA000877F8093E800909325025EDC80912502882311F483E001C084E08EBB2DDB01C02D
:200CC00028DB8091E80083FF0AC08091EB0080628093EB008091E800877F8093E800AC96B4
:200CE0000FB6F894DEBF0FBECDBFCF91DF911F91089508951F938EB3882361F01091E9007A
:200D00001092E9008091E80083FF01C098DE17701093E9001F9108950895FC018EB38430A7
:200D200021F587859089A189B2890097A105B105E1F085818093E9008091E80082FF15C0FE
:200D40008091F200882319F42FEF3FEF04C08091F100282F30E08091F200882341F480916B
:200D6000E8008B778093E80002C02FEF3FEFC9010895FC018EB3843011F587859089A189D2
:200D8000B2890097A105B105D1F081818093E9008091F2008823A9F09091E8008091E8001D
:200DA0008E778093E80095FD0CC0FDDB982F882349F48091E8008E778093E80003C092E020
:200DC00001C090E0892F0895FC018EB3843051F487859089A189B2890097A105B10511F0D8
:200DE000CF01C7CF08951F93FC01162F8EB38430D9F487859089A189B2890097A105B105BD
:200E000099F081818093E9008091E80085FD08C08091E8008E778093E800C5DB882329F4A7
:200E20001093F10080E001C082E01F9108950F931F93CF93DF93EC010D96FC0189E0DF0150
:200E40001D928A95E9F72A813B8109818C81882311F410E001C014E0C90151DB182B1260E6
:200E6000802F61E8412F59DB882329F12E813F810D818885882311F410E001C014E0C901E8
:200E80003EDB182B1260802F60E8412F46DB882391F02A853B8509858C85882311F410E022
:200EA00001C014E0C9012BDB182B1260802F61EC412F33DB01C080E0DF91CF911F910F913D
:200EC0000895CF93DF93EC018091E80083FF60C0888190E020912B0230912C022817390754
:200EE00009F056C080912802813261F0823220F4803209F04DC019C0823269F1833209F08F
:200F000047C038C080912702813A09F041C08091E800877F8093E800CE010F9667E070E0DE
:200F200071DB8091E8008B7713C080912702813279F58091E800877F8093E800CE010F96CE
:200F400067E070E013DCCE0138D98091E8008E778093E8001DC0809127028132C9F480919A
:200F6000E800877F8093E800809129028D87CE01C2D90DC080912702813251F48091E800D6
:200F8000877F8093E800CE0160912902C5DEECDADF91CF910895A1E21A2EAA1BBB1BFD012B
:200FA0000DC0AA1FBB1FEE1FFF1FA217B307E407F50720F0A21BB30BE40BF50B661F771FA7
:200FC000881F991F1A9469F760957095809590959B01AC01BD01CF010895F894FFCF00039F
:140FE00040000004400000020800000000000000000000006F
:201000004BC0000064C0000062C0000060C000005EC000005CC000005AC0000058C00000F3
:2010200056C0000054C0000052C00000CBC400004EC000004CC000004AC0000048C00000B9
:2010400046C0000044C0000042C0000040C000003EC000003CC000003AC0000038C0000098
:2010600036C0000034C0000032C0000030C000002EC000002CC000002AC0000028C00000F8
:2010800026C0000024C0000022C0000020C000001EC000001CC0000011241FBECFEFD2E088
:2010A000DEBFCDBF11E0A0E0B1E0E4EBFCE102C005900D92AC35B107D9F711E0ACE5B1E0E7
:2010C00001C01D92AB37B107E1F74FD3F1C598CF982F15C08091F200882371F48091E80047
:2010E0008B7F8093E80003C08EB3882351F08091E80082FFF9CF02C08091F1009150992358
:2011000049F7089520916A013091690180916801909167018093610190936201C9018093D0
:20112000630190936401089580916501843009F45AC0853030F4813059F0833009F0C3C0E2
:201140001FC0853009F4A0C0863009F0BCC0AFC080916601823008F0B6C0D4DF8091660141
:20116000882361F4809161019091620123E0FC0120935700E89507B600FCFDCF85E008C03F
:2011800080916601882311F0823029F4BBDF89E0809301010895813009F095C020E030E098
:2011A00040E050E0F90184918F3F81F0CA01AA27BB278093600130936201209361018AE0FA
:2011C0008093010185E080935D0108952F5F3F4F4F4F5F4F2030F0E13F07F0E04F07F0E0C2
:2011E0005F0701F7089580916601833051F581E080935C0180916B0190916C01892B71F092
:2012000080916701813009F05EC080916A019091690190935F0180935E010895809167017B
:20122000882361F42CE088E190E00FB6F894A895809360000FBE20936000089510920001A8
:201240000895882309F03FC0809167018F3F09F03AC0E0E0F0E093E085E090935700E895B5
:2012600007B600FCFDCF80935700E89507B600FCFDCFE058FF4F20E1E030F20771F781E123
:2012800080935700E8950895E091670180916601882321F4F0E0EB5FFE4F05C0813099F44F
:2012A000F0E0EE52FF4F808180937001089580916601833041F480916701882321F4809104
:2012C00068018093600108952F923F924F925F926F927F929F92AF92BF92CF92DF92EF9208
:2012E000FF920F931F93CF93DF938091790190917A0190936C0180936B0180916D018823D5
:2013000051F080916D01815080936D0180916D01882309F45D9880916E01882351F0809122
:201320006E01815080936E0180916E01882309F45C9880917401833009F4B2C1843030F44E
:20134000813071F0823009F0E3C111C1853009F4C5C1853008F4BAC1863009F0D9C1CDC11F
:201360005C9A83E080936E018091E800877F8093E80080915C01882329F0D6DE5D985C98C9
:2013800010925C0120916B0130916C012115310529F42AC08EB3882309F4BAC18091E80033
:2013A00082FFF8CF8091F100809365012150304030936C0120936B01E6E6F1E00CC08091C0
:2013C000F10081932150304081E0EB36F80719F43183208308C08091F200882381F7309391
:2013E0006C0120936B01A0DE80910101853009F0BAC080916B0190916C01892B21F482E072
:2014000080930101B0C08AE163DE809161018F715FDEC0916301D09164012091610130919C
:20142000620121968E01021B130B219780916601882309F093C0180136942794C901A09108
:201440006001B0E09C01AD0162E0E62EF12C012D112DE20EF31E041F151F59016A0190E0E4
:2014600099249394B5E0A3E048C08091F200882371F48091E8008B7F8093E80004C08EB352
:20148000882309F445C18091E80082FFF8CF0894210831088091F100682F8091F100782F1D
:2014A000F5010B0190925700E89511249F5F903419F021143104A1F4F901B0935700E89524
:2014C00007B600FCFDCF2114310451F0F701A0935700E89507B600FCFDCFA801970190E0A7
:2014E00042E0442E512C612C712CE40CF51C061D171DA40CB51CC61CD71C2114310409F0A0
:20150000B4CFD0936201C093610181E180935700E89527C08091F200882371F48091E80091
:201520008B7F8093E80004C08EB3882309F4F0C08091E80082FFF8CF6091F10080916101B3
:2015400090916201A7D3809161019091620101969093620180936101015010400115110537
:20156000C9F680E1B5DD8091E8008B7FC3C08091E800877F8093E8005D9A83E080936D015E
:2015800004C08EB3882309F4C3C08091E80080FFF8CF80910101893091F08A3069F4809167
:2015A0006601813049F480916101909162018093F1009093F1009BC08091700196C06091A3
:2015C00063017091640120916101309162016F5F7F4F7B01E21AF30A615070408091660120
:2015E000882389F5870116950795C901A0916001B0E09C01AD011FC08091F200803271F4C3
:201600008091E8008E7F8093E80004C08EB3882309F47EC08091E80080FFF8CFF90185918F
:2016200094918093F1009093F100015010402E5F3F4F4F4F5F4F01151105F1F670936201EC
:201640006093610129C0823039F523C08091F200803271F48091E8008E7F8093E80004C0AA
:201660008EB3882309F454C08091E80080FFF8CF0091610110916201C80104D38093F10093
:201680000F5F1F4F10936201009361010894E108F108E114F104D1F682E08093010127C0E6
:2016A0008091E800877F8093E80080915D018093F1001092F1001092F1001092F1008091F3
:2016C00001018093F1001092F10011C08091E800877F8093E80010925D0119C08091E800D4
:2016E000877F8093E800809101018093F1008091E8008E7F8093E8000AC08091E800877F08
:201700008093E8005D985C9882E08093010187D0DF91CF911F910F91FF90EF90DF90CF901B
:20172000BF90AF909F907F906F905F904F903F902F9008952BD181E085BF15BE089584B799
:20174000877F84BF88E10FB6F89480936000109260000FBE81E085BF82E085BF8AB18063DB
:201760008AB98BB18F7C8BB90CC1E9DF789401C080D2809100018823D9F780915C01882341
:20178000B9F7D8DFE0915E01F0915F010995FA01923071F0933089F0913029F488E091E082
:2017A00022E130E019C080E090E020E030E014C08AE191E02BE130E00FC0882339F48091D9
:2017C0003501282F30E085E391E006C080913901282F30E089E391E091838083C9010895C0
:2017E0008091EB0081608093EB001092ED006093EC004093ED008091EE00881F8827881FE4
:2018000008951092F4001092F0001092E8001092ED00EBEEF0E080818E7F80830895809182
:20182000730188238CF403C08EB38823B1F08091E80082FFF9CF8091E8008B7F8093E80079
:2018400008958EB3882349F08091E80080FFF9CF8091E8008E7F8093E80008959C0140917A
:20186000790150917A014617570718F4F90120E038C06115710511F0AB01F8CF8091E80080
:201880008E7F8093E80040E050E0F0CF8091E80083FF02C081E008958091E80082FD2DC091
:2018A0008EB3882381F18EB3853079F18091E80080FF17C09091F20006C081918093F1002C
:2018C000415050409F5F4115510511F09032A8F320E0903209F421E08091E8008E7F809306
:2018E000E8004115510591F6222381F606C08EB3882349F08EB3853041F08091E80082FF85
:20190000F6CF80E0089582E0089583E0089554D056D01EBA1092710184E089BD89B5826006
:2019200089BD09B400FEFDCF8091D800982F9F779093D80080688093D800809163008E7FC5
:20194000809363008091D8008F7D8093D8008091E0008E7F8093E0008091E1008E7F80932E
:20196000E1008091E20081608093E2008091E100877F8093E1008091E20088608093E20001
:201980000895C5DF81E0809372010895C0DFE0EEF0E0808181608083E8EDF0E080818F77B4
:2019A00080830AD00CD019BCE3E6F0E08081816080831092720108951092E20008951092A6
:2019C000E10008951F920F920FB60F9211242F933F934F935F936F937F938F939F93AF938A
:2019E000BF93EF93FF938091E10080FF1BC08091E20080FF17C08091E1008E7F8093E100F9
:201A00008091E2008E7F8093E2008091E20080618093E2008091D80080628093D80019BC7D
:201A20001EBA26D18091E10084FF29C08091E20084FF25C084E089BD89B5826089BD09B451
:201A400000FEFDCF8091D8008F7D8093D8008091E1008F7E8093E1008091E2008F7E8093D6
:201A6000E2008091E20081608093E20080917101882311F481E001C084E08EBBF9D08091DF
:201A8000E10083FF22C08091E20083FF1EC08091E100877F8093E10082E08EBB1092710103
:201AA0008091E1008E7F8093E1008091E2008E7F8093E2008091E20080618093E200A1DEF6
:201AC00080E060E042E28CDED3D08091E10082FF0AC08091E20082FF06C08091E1008B7FC2
:201AE0008093E100C5D0FF91EF91BF91AF919F918F917F916F915F914F913F912F910F905E
:201B00000FBE0F901F9018951F93DF93CF9300D0CDB7DEB7E3E7F1E08091F100819381E07C
:201B2000EB37F807C9F79091730180917401853011F1863040F48130B9F0813070F08330EA
:201B400009F081C011C0883009F453C0893009F462C0863009F077C02DC0903809F474C00E
:201B6000923809F070C070C0992309F46DC0923009F069C069C0992309F065C0109175015E
:201B80008091E800877F8093E80049DE04C08EB3882309F459C08091E80080FFF8CF812F6F
:201BA0008F7711F492E001C093E09EBB80688093E3004AC09058923008F045C08091750105
:201BC0009091760160917701AE014F5F5F4FDFDDBC010097C9F18091E800877F8093E80035
:201BE00089819A813BDE8091E8008B7F8093E8002BC0903841F58091E800877F8093E800C6
:201C0000809171018093F1008091E8008E7F8093E80005DE19C09923B1F4909175019230C6
:201C200098F48091E800877F8093E80090937101F6DD80917101882311F483E001C084E0FB
:201C40008EBB16D001C040DB8091E80083FF0AC08091EB0080628093EB008091E800877F59
:201C60008093E8000F900F90CF91DF911F91089508958EB3882329F08091E80083FF01C030
:201C800043CF0895F999FECF92BD81BDF89A992780B50895262FF999FECF1FBA92BD81BD6B
:201CA00020BD0FB6F894FA9AF99A0FBE01960895F894FFCF01021E948920DCFB120110011B
:201CC00000000020EB03EF2F00000001000109021B0001010080320904000000FE010200EE
:201CE0000921030000000C0001040309042003410072006400750069006E006F002000552C
:101D0000006E006F002000440046005500000000F7
:0400000500001000E7
:00000001FF
