:1070000055C000006EC000006CC000006AC00000E7
:1070100068C0000066C0000064C0000062C00000DC
:1070200060C000005EC0000002C500005AC0000041
:1070300058C0000056C0000054C0000052C00000FC
:1070400050C00000CBC000004CC000004AC000008F
:1070500048C0000046C0000044C0000042C000001C
:1070600040C000003EC000003CC000003AC000002C
:1070700038C0000036C0000034C0000032C000003C
:1070800030C000002EC000002CC000002AC000004C
:1070900028C0000026C0000024C0000022C000005C
:1070A00020C000001EC000001CC0000011241FBE34
:1070B000CFEFDAE0DEBFCDBF11E0A0E0B1E0ECE45D
:1070C000FFE702C005900D92A839B107D9F711E08A
:1070D000A8E9B1E001C01D92A23BB107E1F7CDD311
:1070E00033C78ECF81E085BF15BE81E18093570005
:1070F000E89508958CED8EBB86EA8ABDE0E0F0E06D
:10710000099584E08093E9000DC08091E8008B77B9
:107110008093E80003C08EB3882351F08091E8008B
:1071200082FFF9CF8091E80085FFEFCF8091F100D9
:107130000895982F83E08093E9008091E80085FD11
:107140000DC08091E8008E778093E80003C08EB375
:10715000882331F08091E80080FFF9CF9093F1000F
:107160000895209A279A509A519A549A579A3E9A7B
:10717000809A219A229A239A28982F985898599859
:107180005C985F984698889829982A982B98E1E807
:10719000F0E01082A0E8B0E01C92808181608083E2
:1071A00080818D7F808380818B7F80838C918E7F97
:1071B0008C938C918D7F8C9380818860808380817B
:1071C0008F7E80838FEF9FE7909389008093880064
:1071D000EFE6F0E080818260808308951F920F9235
:1071E0000FB60F9211242F938F939F93EF93FF93DA
:1071F000809198018823E1F08091990190919A0102
:10720000019690939A01809399010197499781F48F
:107210009091A701E6EAF1E080818183319781E0D6
:10722000EF39F807C9F7918310929A0110929901EA
:1072300028982F98589859985C985F9846988898FD
:1072400080919B0190E001968770907080939B01E4
:10725000E7EAF1E0E81BF90BE081E7FD889AE6FD3B
:10726000469AE5FD5F9AE4FD5C9AE3FD599AE2FDDA
:10727000589AE1FD2F9AE0FD289A80FF02C0299AD2
:1072800001C0299881FF02C02A9A01C02A9882FF72
:1072900002C02B9A01C02B98FF91EF919F918F9183
:1072A0002F910F900FBE0F901F9018954F925F92E5
:1072B0006F927F928F929F92AF92BF92CF92DF9206
:1072C000EF92FF920F931F93CF93DF9384E080930D
:1072D000E9008091E80082FF46C213DF082F8C345A
:1072E00009F43FC0803549F0843529F0853449F4EC
:1072F00010920F0136C005DF34C081E08093980101
:1073000030C0843721F484E414DF80E002C2813687
:1073100011F489E5FEC1813431F5F3DEF82EFF0C5E
:10732000EE240027F7FC0095102FE0929C01F092CC
:107330009D0100939E0110939F01E3DE90E0880F72
:10734000991FAA2797FDA095BA2F8E299F29A02BB8
:10735000B12B80939C0190939D01A0939E01B093CB
:107360009F018DE0D6C1803711F483E5D2C183350A
:1073700049F4C0E0D1E08991DCDE21E0C730D207DA
:10738000D1F7C8C1863521F481E3D3DE80E3C1C1E2
:10739000833731F487E8CDDE85E9CBDE8EE1B9C1F4
:1073A000823631F489E5C5DE80E0C3DE80E8B1C114
:1073B0008536B9F4E0E0F0E093E085E09093570083
:1073C000E89507B600FCFDCF80935700E89507B617
:1073D00000FCFDCFEF57FF4F20E7EF35F20771F7C5
:1073E000C0CF8C3651F48DDE809599E0E1E0F0E07D
:1073F000082E90935700E895B4CF823739F4E1E036
:10740000F0E089E080935700849183C1863439F499
:10741000E0E0F0E089E08093570084917AC18E34F7
:1074200039F4E3E0F0E089E080935700849171C182
:10743000813539F4E2E0F0E089E0809357008491EF
:1074400068C1833471F400919C0110919D0159DE53
:1074500090E021E0F8010C0120935700E8951124F9
:1074600080CF833679F400919C0110919D010160D9
:1074700048DE90E021E0F8010C0120935700E895E8
:10748000112414C18D3661F4E0919C01F0919D01AD
:1074900085E080935700E89507B600FCFDCF61CFEB
:1074A000823419F0873609F0E3C02BDEE82E29DE9E
:1074B000D82E27DEA82E8554823008F029C19E2DB3
:1074C00080E0CD2DD0E0C82BD92B073609F052C073
:1074D00081E180935700E89500E011E047C0F6E4B1
:1074E000AF1611F5E02FF0E080919C0190919D0185
:1074F000E82BF92BE4918E2F1CDE002399F080916C
:107500009C0190919D01A0919E01B0919F010296D6
:10751000A11DB11D80939C0190939D01A0939E019C
:10752000B0939F01012721C080919C0190919D0102
:10753000A0919E01B0919F01B695A79597958795CB
:10754000EDD4F7DD80919C0190919D01A0919E0169
:10755000B0919F010296A11DB11D80939C01909353
:107560009D01A0939E01B0939F012197209709F060
:10757000B6CFD0C060909C0170909D0180909E011C
:1075800090909F0126E4A21609F05EC083E0F3010B
:1075900080935700E89507B600FCFDCF55C0F6E490
:1075A000AF1669F5BB2031F100919C0110919D014E
:1075B000A8DDD82ECC24852D90E08C299D29F801BA
:1075C0000C0140925700E895112480919C01909104
:1075D0009D01A0919E01B0919F010296A11DB11D38
:1075E00080939C0190939D01A0939E01B0939F0175
:1075F000BB2428C086DD582EBB24B39423C0E09062
:107600009C01F0909D0100919E0110919F011695A3
:107610000795F794E79475DD682FC70187D48091AB
:107620009C0190919D01A0919E01B0919F010296B5
:10763000A11DB11D80939C0190939D01A0939E017B
:10764000B0939F01219704C05524BB244424439444
:10765000209709F0A4CFF6E4AF1609F082CE85E0BA
:10766000F30180935700E89507B600FCFDCF79CE73
:10767000823551F4E0919C01F0919D0105911491A6
:10768000812F57DD802F45C08434E1F4E0909C01C8
:10769000F0909D0100919E0110919F011695079514
:1076A000F794E7942EDD682FC70140D480919C01A8
:1076B00090919D01A0919E01B0919F010296A11D04
:1076C000B11D47CE843611F580919C0190919D01AA
:1076D000A0919E01B0919F01B695A795979587952A
:1076E0001DD427DD80919C0190919D01A0919E0168
:1076F000B0919F010296A11DB11D80939C019093B2
:107700009D01A0939E01B0939F0104C08B3111F0A5
:107710008FE30FDD83E08093E9009091E800809192
:10772000E8008E778093E80095FF04C010C08EB308
:107730008823C9F08091E80080FFF9CF8091E800AC
:107740008E778093E80003C08EB3882361F0809128
:10775000E80080FFF9CF84E08093E9008091E800A1
:107760008B778093E800DF91CF911F910F91FF906D
:10777000EF90DF90CF90BF90AF909F908F907F90D1
:107780006F905F904F9008958091AB01813229F006
:10779000823251F1803291F514C08091AA01813A70
:1077A00069F58091E800877F8093E80088E091E0A8
:1077B00067E070E0F9D28091E8008B778093E80071
:1077C00008958091AA01813279F48091E800877F41
:1077D0008093E80088E091E067E070E049D3809111
:1077E000E8008E778093E8008091AA01813231F41D
:1077F0008091E800877F8093E8009FC0089582E031
:1078000061EC42E087D083E061E842E183D084E02C
:1078100060E842E17FC084B7877F84BF88E10FB60C
:10782000F89480936000109260000FBE80E090E0BA
:1078300020E80FB6F89420936100809361000FBE9A
:107840009EB33AB521E025BF82E085BF9C3D59F447
:10785000353A49F4109210012093A90184E08EBBBF
:107860002093A80104C081E080931001CAD079DC84
:107870006A9A729A1EBA1ABC0895F894CCDF78946A
:107880001092A00188E18093A1018093A2018093CE
:10789000A3019EE79093A4019CE39093A50180939C
:1078A000A6011092A70106C0629902C010920F01B2
:1078B000FDDC22D380910F018823B1F713DC1ADCA1
:1078C000FFCFFA01923071F0933089F0913029F4B2
:1078D00081E191E022E130E019C080E090E020E019
:1078E00030E014C083E291E02EE330E00FC0882343
:1078F00039F480916101282F30E081E691E006C0E3
:1079000080916501282F30E085E691E091838083A6
:10791000C90108958093E9008091EB008160809314
:10792000EB001092ED006093EC004093ED0080912D
:10793000EE00881F8827881F08958091AA01882358
:107940008CF403C08EB38823B1F08091E80082FFED
:10795000F9CF8091E8008B778093E80008958EB38B
:10796000882349F08091E80080FFF9CF8091E800FA
:107970008E778093E80008954DD054D08091D80040
:10798000982F9F779093D80080688093D8008AE4DE
:1079900082BF80E189BD89B5826089BD09B400FEDE
:1079A000FDCF8091D8008F7D8093D8001EBA1092B1
:1079B000A8018091E0008B7F8093E0008091D80047
:1079C00081608093D80080E060E042E0A3DF809196
:1079D000E1008E7F8093E1008091E20081608093DE
:1079E000E2008091E20088608093E2008091E000F4
:1079F0008E7F8093E0008091D80080618093D800D2
:107A00000895E7EDF0E080818160808381E08093DC
:107A1000A901B2CFE8EDF0E080818E7F80831092E3
:107A2000E20008951092DA001092E10008951F928A
:107A30000F920FB60F9211242F933F934F935F93A2
:107A40006F937F938F939F93AF93BF93EF93FF9326
:107A50008091DA0080FF13C08091D80080FF0FC0B2
:107A60008091DA008E7F8093DA008091D90080FFC8
:107A700004C081E08EBB97D102C01EBA94D1809120
:107A8000E10080FF1CC08091E20080FF18C080915F
:107A9000E1008E7F8093E1008091E2008E7F8093F1
:107AA000E2008091E20080618093E2008091D80042
:107AB00080628093D80019BC85E08EBB74D1809120
:107AC000E10084FF2DC08091E20084FF29C080E1A5
:107AD00089BD89B5826089BD09B400FEFDCF809162
:107AE000D8008F7D8093D8008091E1008F7E8093B5
:107AF000E1008091E2008F7E8093E2008091E200BD
:107B000081608093E2008091A801882331F4809104
:107B1000E30087FD02C081E001C084E08EBB43D159
:107B20008091E10083FF21C08091E20083FF1DC0AE
:107B30008091E100877F8093E10082E08EBB10920C
:107B4000A8018091E1008E7F8093E1008091E200A6
:107B50008E7F8093E2008091E20080618093E2005A
:107B600080E060E042E0D6DE1ED1FF91EF91BF9150
:107B7000AF919F918F917F916F915F914F913F91C5
:107B80002F910F900FBE0F901F9018950F931F937A
:107B9000DF93CF9300D0CDB7DEB7EAEAF1E0809172
:107BA000F100819381E0E23BF807C9F78091AA01D7
:107BB0009091AB01953009F46DC0963040F491304E
:107BC00081F1913070F0933009F0D7C02AC098301D
:107BD00009F4A5C0993009F4B4C0963009F0CDC0BD
:107BE0007EC0803809F4CAC0823809F0C6C08091CE
:107BF000AE0187708093E9008091EB001092E9005C
:107C00002091E800277F2093E80090E025E09695FA
:107C100087952A95E1F781708093F1001092F10029
:107C200089C0882319F0823009F0A7C08F71823093
:107C300009F0A4C08091AC01882331F52091AE01F8
:107C4000277009F49BC02093E9008091EB0080FF2E
:107C50001BC0933021F48091EB00806213C08091AF
:107C6000EB0080618093EB0081E090E002C0880F20
:107C7000991F2A95E2F78093EA001092EA0080911A
:107C8000EB0088608093EB001092E9008091E8009F
:107C9000877F53C0882309F070C01091AC011F7713
:107CA0000FB7F8948091E800877F8093E80045DE65
:107CB0008091E80080FFFCCF112311F482E001C025
:107CC00083E08EBB8091E3008078182B1093E30053
:107CD0008091E30080688093E3000FBF4FC080581D
:107CE000823008F04AC08091AC019091AD01609162
:107CF000AE01AE014F5F5F4FE4DDBC01009709F4B8
:107D00003DC08091E800877F8093E80089819A8157
:107D10004BD08091E8008B778093E8002FC08038AB
:107D200061F58091E800877F8093E8008091A80149
:107D30008093F1008091E8008E778093E800FDDD6C
:107D40001DC08823D1F49091AC019230B8F4809199
:107D5000E800877F8093E8009093A801EEDD809192
:107D6000A801882331F48091E30087FD02C081E0FF
:107D700001C084E08EBB43DD01C006DD8091E800D8
:107D800083FF0AC08091EB0080628093EB008091BA
:107D9000E800877F8093E8000F900F90CF91DF91EC
:107DA0001F910F91089508959C014091B001509149
:107DB000B1014617570718F4F90190E044C0611566
:107DC000710511F0AB01F8CF8091E8008E778093B8
:107DD000E80040E050E0F0CF8EB3882309F444C0BF
:107DE000853009F443C08091E80083FF02C081E040
:107DF00008958091E80082FD31C08091E80080FF05
:107E000022C08091F3009091F200782F60E0292F3A
:107E100030E0262B372B07C081918093F100415031
:107E200050402F5F3F4F4115510519F02830310563
:107E300098F390E02830310509F491E08091E80052
:107E40008E778093E8004115510531F6992321F68C
:107E500005C08EB3882341F0853041F08091E80061
:107E600082FFF7CF80E0089582E0089583E00895CF
:107E70009C016115710529F48091E8008B7780934E
:107E8000E800F90126C08EB3882391F1853091F185
:107E90008091E80083FF02C081E008958091E800AE
:107EA00082FFF1CF06C08091F10081936150704054
:107EB00059F02091F3008091F200322F20E090E001
:107EC000822B932B892B79F78091E8008B77809315
:107ED000E80061157105B9F605C08EB3882341F03D
:107EE000853041F08091E80080FFF7CF80E0089571
:107EF00082E0089583E008951F938EB3882361F094
:107F00001091E9001092E9008091E80083FF01C020
:107F10003DDE17701093E9001F910895F999FECF87
:107F200092BD81BDF89A992780B50895262FF999B9
:107F3000FECF1FBA92BD81BD20BD0FB6F894FA9A4C
:0C7F4000F99A0FBE01960895F894FFCF47
:107F4C004C5546414344430000000000000008012A
:107F5C00011201100102000008EB034A200100008D
:107F6C0001000109023E00020100803209040000F8
:107F7C00010202010005240010010424020405245E
:107F8C00060001070582030800FF09040100020A2C
:107F9C000000000705040210000007058302100012
:107FAC00000403090430034400750069006E006F7F
:107FBC000042006F0074002E004B006900640073D7
:107FCC00002E004600690072006D002E0076003114
:087FDC00002E0030000000003F
:0400000500800198DE
:00000001FF
