:1070000055C000006EC000006CC000006AC00000E7
:1070100068C0000066C0000064C0000062C00000DC
:1070200060C000005EC00000C9C400005AC000007B
:1070300058C0000056C0000054C0000052C00000FC
:1070400050C000004EC000004CC000004AC000000C
:1070500048C0000046C0000044C00000A3C00000BB
:1070600040C000003EC000003CC000003AC000002C
:1070700038C0000036C0000034C0000032C000003C
:1070800030C000002EC000002CC000002AC000004C
:1070900028C0000026C0000024C0000022C000005C
:1070A00020C000001EC000001CC0000011241FBE34
:1070B000CFEFDAE0DEBFCDBF11E0A0E0B1E0EAED56
:1070C000FEE702C005900D92AE38B107D9F711E086
:1070D000AEE8B1E001C01D92AE39B107E1F766D369
:1070E000FAC68ECF81E085BF15BE81E1809357003F
:1070F000E89508958CED8EBB86EA8ABDE0E0F0E06D
:10710000099584E08093E9000DC08091E8008B77B9
:107110008093E80003C08EB3882351F08091E8008B
:1071200082FFF9CF8091E80085FFEFCF8091F100D9
:107130000895982F83E08093E9008091E80085FD11
:107140000DC08091E8008E778093E80003C08EB375
:10715000882331F08091E80080FFF9CF9093F1000F
:10716000089584B5826084BD84B5816084BD85B591
:10717000846085BD85B58D7F85BD85B5816085BD04
:10718000EEE6F0E08081816080837894089585B593
:107190008B7F85BD85B58D7F85BD85B58E7F85BD92
:1071A000F89408951F920F920FB60F9211248F93A7
:1071B0009F9380918E0190918F01019690938F0102
:1071C00080938E010197039741F485B192E089275E
:1071D00085B910928F0110928E019F918F910F901F
:1071E0000FBE0F901F9018954F925F926F927F92F3
:1071F0008F929F92AF92BF92CF92DF92EF92FF92C7
:107200000F931F93CF93DF9384E08093E9008091E5
:10721000E80082FF44C275DF082F8C3409F43DC0BA
:10722000803549F0843529F0853439F410920F0106
:1072300034C067DF32C095DF30C0843721F484E486
:1072400078DF80E002C2813611F489E5FEC1813425
:1072500031F557DFF82EFF0CEE240027F7FC0095E0
:10726000102FE0929001F0929101009392011093FF
:10727000930147DF90E0880F991FAA2797FDA095FB
:10728000BA2F8E299F29A02BB12B80939001909328
:107290009101A0939201B09393018DE0D6C1803704
:1072A00011F483E5D2C1833549F4C0E0D1E089917E
:1072B00040DF21E0C730D207D1F7C8C1863521F4BD
:1072C00081E337DF80E3C1C1833731F487E831DF01
:1072D00085E92FDF8EE1B9C1823631F489E529DFF6
:1072E00080E027DF80E8B1C18536B9F4E0E0F0E066
:1072F00093E085E090935700E89507B600FCFDCF3A
:1073000080935700E89507B600FCFDCFEF57FF4F7D
:1073100020E7EF35F20771F7C0CF8C3651F4F1DE7C
:10732000809599E0E1E0F0E0082E90935700E89511
:10733000B4CF823739F4E1E0F0E089E08093570080
:10734000849183C1863439F4E0E0F0E089E08093F1
:10735000570084917AC18E3439F4E3E0F0E089E09B
:1073600080935700849171C1813539F4E2E0F0E0F7
:1073700089E080935700849168C1833471F400914F
:10738000900110919101BDDE90E021E0F8010C0127
:1073900020935700E895112480CF833679F400912B
:1073A0009001109191010160ACDE90E021E0F801C4
:1073B0000C0120935700E895112414C18D3661F417
:1073C000E0919001F091910185E080935700E8955C
:1073D00007B600FCFDCF61CF823419F0873609F083
:1073E000E3C08FDEE82E8DDED82E8BDEA82E8554EE
:1073F000823008F029C19E2D80E0CD2DD0E0C82B31
:10740000D92B073609F052C081E180935700E895E7
:1074100000E011E047C0F6E4AF1611F5E02FF0E010
:107420008091900190919101E82BF92BE4918E2F9E
:1074300080DE002399F08091900190919101A091BC
:107440009201B09193010296A11DB11D809390010C
:1074500090939101A0939201B0939301012721C0D1
:107460008091900190919101A0919201B09193012E
:10747000B695A7959795879518D55BDE8091900175
:1074800090919101A0919201B09193010296A11D5A
:10749000B11D8093900190939101A0939201B093BC
:1074A00093012197209709F0B6CFD0C0609090014A
:1074B00070909101809092019090930126E4A21621
:1074C00009F05EC083E0F30180935700E89507B6AA
:1074D00000FCFDCF55C0F6E4AF1669F5BB2031F1D5
:1074E00000919001109191010CDED82ECC24852DB5
:1074F00090E08C299D29F8010C0140925700E895F5
:1075000011248091900190919101A0919201B091EC
:1075100093010296A11DB11D80939001909391015A
:10752000A0939201B0939301BB2428C0EADD582EAA
:10753000BB24B39423C0E0909001F090910100919E
:1075400092011091930116950795F794E794D9DD70
:10755000682FC701B2D48091900190919101A091C0
:107560009201B09193010296A11DB11D80939001EB
:1075700090939101A0939201B0939301219704C03D
:107580005524BB2444244394209709F0A4CFF6E467
:10759000AF1609F082CE85E0F30180935700E8959D
:1075A00007B600FCFDCF79CE823551F4E091900111
:1075B000F091910105911491812FBBDD802F45C081
:1075C0008434E1F4E0909001F090910100919201F7
:1075D0001091930116950795F794E79492DD682F23
:1075E000C7016BD48091900190919101A09192017B
:1075F000B09193010296A11DB11D47CE843611F5BD
:107600008091900190919101A0919201B09193018C
:10761000B695A7959795879548D48BDD8091900175
:1076200090919101A0919201B09193010296A11DB8
:10763000B11D8093900190939101A0939201B0931A
:10764000930104C08B3111F08FE373DD83E08093ED
:10765000E9009091E8008091E8008E778093E8003F
:1076600095FF04C010C08EB38823C9F08091E80054
:1076700080FFF9CF8091E8008E778093E80003C007
:107680008EB3882361F08091E80080FFF9CF84E019
:107690008093E9008091E8008B778093E800DF9188
:1076A000CF911F910F91FF90EF90DF90CF90BF90FF
:1076B000AF909F908F907F906F905F904F900895C4
:1076C00080919701813229F0823251F1803291F517
:1076D00014C080919601813A69F58091E800877F16
:1076E0008093E80088E091E067E070E024D3809127
:1076F000E8008B778093E8000895809196018132AD
:1077000079F48091E800877F8093E80088E091E039
:1077100067E070E074D38091E8008E778093E80092
:1077200080919601813231F48091E800877F8093C7
:10773000E800CAC0089582E061EC42E0B2D083E084
:1077400061E842E1AED084E060E842E1AAC084B7DB
:10775000877F84BF88E10FB6F89480936000109211
:1077600060000FBE80E090E020E80FB6F894209310
:107770006100809361000FBE9EB33AB521E025BF42
:1077800082E085BF9C3D59F4353A49F410921001CE
:107790002093950184E08EBB2093940104C081E086
:1077A00080931001F5D01EBA1ABC0895F894CFDF6B
:1077B0007894219A6A9A729A299A80ED97E020E942
:1077C00031E0F9013197F1F70197D9F7299880ED68
:1077D00097E020E931E0F9013197F1F70197D9F706
:1077E000299A80ED97E020E931E0F9013197F1F72E
:1077F0000197D9F7299880ED97E020E931E0F90168
:107800003197F1F70197D9F7299A80ED97E020E9B0
:1078100031E0F9013197F1F70197D9F7299880ED17
:1078200097E020E931E0F9013197F1F70197D9F7B5
:10783000299A06C0629902C010920F01D5DC23D3A9
:1078400080910F018823B1F7A2DC4CDC53DCFFCF21
:10785000FA01923071F0933089F0913029F481E18E
:1078600091E022E130E019C080E090E020E030E0DB
:1078700014C083E291E02EE330E00FC0882339F496
:1078800080916101282F30E081E691E006C080916F
:107890006501282F30E085E691E091838083C9015E
:1078A00008958093E9008091EB0081608093EB0064
:1078B0001092ED006093EC004093ED008091EE009B
:1078C000881F8827881F08958091960188238CF44B
:1078D00003C08EB38823B1F08091E80082FFF9CF16
:1078E0008091E8008B778093E80008958EB3882319
:1078F00049F08091E80080FFF9CF8091E8008E7711
:107900008093E80008954DD054D08091D800982FEE
:107910009F779093D80080688093D8008AE482BFD4
:1079200080E189BD89B5826089BD09B400FEFDCFC3
:107930008091D8008F7D8093D8001EBA1092940158
:107940008091E0008B7F8093E0008091D80081607F
:107950008093D80080E060E042E0A3DF8091E10006
:107960008E7F8093E1008091E20081608093E2004D
:107970008091E20088608093E2008091E0008E7F39
:107980008093E0008091D80080618093D8000895B2
:10799000E7EDF0E080818160808381E08093950154
:1079A000B2CFE8EDF0E080818E7F80831092E2001C
:1079B00008951092DA001092E10008951F920F923C
:1079C0000FB60F9211242F933F934F935F936F93B2
:1079D0007F938F939F93AF93BF93EF93FF93809188
:1079E000DA0080FF13C08091D80080FF0FC0809123
:1079F000DA008E7F8093DA008091D90080FF04C086
:107A000081E08EBB97D102C01EBA94D18091E10073
:107A100080FF1CC08091E20080FF18C08091E100CF
:107A20008E7F8093E1008091E2008E7F8093E20060
:107A30008091E20080618093E2008091D8008062B2
:107A40008093D80019BC85E08EBB74D18091E10091
:107A500084FF2DC08091E20084FF29C080E189BDB0
:107A600089B5826089BD09B400FEFDCF8091D80040
:107A70008F7D8093D8008091E1008F7E8093E1001C
:107A80008091E2008F7E8093E2008091E20081602D
:107A90008093E20080919401882331F48091E30087
:107AA00087FD02C081E001C084E08EBB43D180919C
:107AB000E10083FF21C08091E20083FF1DC080911F
:107AC000E100877F8093E10082E08EBB10929401F9
:107AD0008091E1008E7F8093E1008091E2008E7FB3
:107AE0008093E2008091E20080618093E20080E078
:107AF00060E042E0D6DE1ED1FF91EF91BF91AF91E1
:107B00009F918F917F916F915F914F913F912F91B5
:107B10000F900FBE0F901F9018950F931F93DF9338
:107B2000CF9300D0CDB7DEB7E6E9F1E08091F10068
:107B3000819381E0EE39F807C9F780919601909121
:107B40009701953009F46DC0963040F4913081F181
:107B5000913070F0933009F0D7C02AC0983009F402
:107B6000A5C0993009F4B4C0963009F0CDC07EC0EC
:107B7000803809F4CAC0823809F0C6C080919A01E1
:107B800087708093E9008091EB001092E9002091CA
:107B9000E800277F2093E80090E025E09695879500
:107BA0002A95E1F781708093F1001092F10089C06D
:107BB000882319F0823009F0A7C08F71823009F054
:107BC000A4C080919801882331F520919A012770F3
:107BD00009F49BC02093E9008091EB0080FF1BC05B
:107BE000933021F48091EB00806213C08091EB0010
:107BF00080618093EB0081E090E002C0880F991FC4
:107C00002A95E2F78093EA001092EA008091EB0057
:107C100088608093EB001092E9008091E800877FF4
:107C200053C0882309F070C0109198011F770FB7D7
:107C3000F8948091E800877F8093E80045DE80918A
:107C4000E80080FFFCCF112311F482E001C083E043
:107C50008EBB8091E3008078182B1093E300809115
:107C6000E30080688093E3000FBF4FC080588230EC
:107C700008F04AC0809198019091990160919A0111
:107C8000AE014F5F5F4FE4DDBC01009709F43DC0DA
:107C90008091E800877F8093E80089819A814BD0AA
:107CA0008091E8008B778093E8002FC0803861F5E1
:107CB0008091E800877F8093E80080919401809311
:107CC000F1008091E8008E778093E800FDDD1DC013
:107CD0008823D1F4909198019230B8F48091E80013
:107CE000877F8093E80090939401EEDD809194016A
:107CF000882331F48091E30087FD02C081E001C058
:107D000084E08EBB18DD01C0DBDC8091E80083FFDE
:107D10000AC08091EB0080628093EB008091E800C4
:107D2000877F8093E8000F900F90CF91DF911F9194
:107D30000F91089508959C0140919C0150919D01DF
:107D40004617570718F4F90190E044C06115710512
:107D500011F0AB01F8CF8091E8008E778093E800B6
:107D600040E050E0F0CF8EB3882309F444C0853062
:107D700009F443C08091E80083FF02C081E00895C8
:107D80008091E80082FD31C08091E80080FF22C030
:107D90008091F3009091F200782F60E0292F30E07D
:107DA000262B372B07C081918093F1004150504022
:107DB0002F5F3F4F4115510519F02830310598F3D9
:107DC00090E02830310509F491E08091E8008E7749
:107DD0008093E8004115510531F6992321F605C03D
:107DE0008EB3882341F0853041F08091E80082FF16
:107DF000F7CF80E0089582E0089583E008959C0124
:107E00006115710529F48091E8008B778093E80073
:107E1000F90126C08EB3882391F1853091F18091CC
:107E2000E80083FF02C081E008958091E80082FFAE
:107E3000F1CF06C08091F10081936150704059F0FC
:107E40002091F3008091F200322F20E090E0822B0D
:107E5000932B892B79F78091E8008B778093E8004A
:107E600061157105B9F605C08EB3882341F08530E0
:107E700041F08091E80080FFF7CF80E0089582E034
:107E8000089583E008951F938EB3882361F01091C5
:107E9000E9001092E9008091E80083FF01C03DDE17
:107EA00017701093E9001F910895F999FECF92BDC4
:107EB00081BDF89A992780B50895262FF999FECFAC
:107EC0001FBA92BD81BD20BD0FB6F894FA9AF99AF7
:0A7ED0000FBE01960895F894FFCF4D
:107EDA004C5546414344430000000000000008019D
:107EEA00011201100102000008EB034A2001000000
:107EFA0001000109023E000201008032090400006B
:107F0A0001020201000524001001042402040524D0
:107F1A00060001070582030800FF09040100020A9E
:107F2A000000000705040210000007058302100084
:107F3A00000403090426034400750069006E006FFB
:107F4A000042006F0074002E004600690072006D46
:0E7F5A00002E00760031002E003000000000E6
:040000030000700089
:00000001FF
