:101000004BC0000064C0000062C0000060C000006F
:101010005EC000005CC000005AC0000058C0000064
:1010200056C0000054C0000052C00000CBC40000F5
:101030004EC000004CC000004AC0000048C0000084
:1010400046C0000044C0000042C0000040C0000094
:101050003EC000003CC000003AC0000038C00000A4
:1010600036C0000034C0000032C0000030C00000B4
:101070002EC000002CC000002AC0000028C00000C4
:1010800026C0000024C0000022C0000020C00000D4
:101090001EC000001CC0000011241FBECFEFD4E012
:1010A000DEBFCDBF11E0A0E0B1E0E4EBFCE102C0A7
:1010B00005900D92AC35B107D9F711E0ACE5B1E080
:1010C00001C01D92AB37B107E1F74FD3F1C598CFFF
:1010D000982F15C08091F200882371F48091E80068
:1010E0008B7F8093E80003C08EB3882351F08091FA
:1010F000E80082FFF9CF02C08091F100915099235E
:1011000049F7089520916A01309169018091680141
:10111000909167018093610190936201C90180936E
:10112000630190936401089580916501843009F40E
:101130005AC0853030F4813059F0833009F0C3C093
:101140001FC0853009F4A0C0863009F0BCC0AFC014
:1011500080916601823008F0B6C0D4DF80916601CC
:10116000882361F4809161019091620123E0FC0188
:1011700020935700E89507B600FCFDCF85E008C036
:1011800080916601882311F0823029F4BBDF89E069
:10119000809301010895813009F095C020E030E08E
:1011A00040E050E0F90184918F3F81F0CA01AA2705
:1011B000BB278093600130936201209361018AE034
:1011C0008093010185E080935D0108952F5F3F4F7B
:1011D0004F4F5F4F2030F0E13F07F0E04F07F0E066
:1011E0005F0701F7089580916601833051F581E032
:1011F00080935C0180916B0190916C01892B71F05F
:1012000080916701813009F05EC080916A01909100
:10121000690190935F0180935E0108958091670159
:10122000882361F42CE088E190E00FB6F894A8954B
:10123000809360000FBE209360000895109200011B
:101240000895882309F03FC0809167018F3F09F01E
:101250003AC0E0E0F0E093E085E090935700E89535
:1012600007B600FCFDCF80935700E89507B600FC59
:10127000FDCFE058FF4F20E1E030F20771F781E148
:1012800080935700E8950895E09167018091660189
:10129000882321F4F0E0EB5FFE4F05C0813099F424
:1012A000F0E0EE52FF4F80818093700108958091AD
:1012B0006601833041F480916701882321F4809195
:1012C00068018093600108952F923F924F925F9240
:1012D0006F927F929F92AF92BF92CF92DF92EF92E6
:1012E000FF920F931F93CF93DF9380917901909199
:1012F0007A0190936C0180936B0180916D0188233A
:1013000051F080916D01815080936D0180916D014C
:10131000882309F45D9A80916E01882351F08091B1
:101320006E01815080936E0180916E01882309F4D3
:101330005C9A80917401833009F4B2C1843030F436
:10134000813071F0823009F0E3C111C1853009F4B8
:10135000C5C1853008F4BAC1863009F0D9C1CDC104
:101360005C9883E080936E018091E800877F809392
:10137000E80080915C01882329F0D6DE5D9A5C9AB2
:1013800010925C0120916B0130916C0121153105A7
:1013900029F42AC08EB3882309F4BAC18091E800E9
:1013A00082FFF8CF8091F100809365012150304099
:1013B00030936C0120936B01E6E6F1E00CC0809164
:1013C000F10081932150304081E0EB36F80719F4A9
:1013D0003183208308C08091F200882381F7309305
:1013E0006C0120936B01A0DE80910101853009F032
:1013F000BAC080916B0190916C01892B21F482E03D
:1014000080930101B0C08AE163DE809161018F7138
:101410005FDEC0916301D091640120916101309140
:10142000620121968E01021B130B219780916601A8
:10143000882309F093C0180136942794C901A0911C
:101440006001B0E09C01AD0162E0E62EF12C012DBF
:10145000112DE20EF31E041F151F59016A0190E0C1
:1014600099249394B5E0A3E048C08091F2008823CA
:1014700071F48091E8008B7F8093E80004C08EB304
:10148000882309F445C18091E80082FFF8CF0894D1
:10149000210831088091F100682F8091F100782FA8
:1014A000F5010B0190925700E89511249F5F90344D
:1014B00019F021143104A1F4F901B0935700E89513
:1014C00007B600FCFDCF2114310451F0F701A093C1
:1014D0005700E89507B600FCFDCFA801970190E002
:1014E00042E0442E512C612C712CE40CF51C061D9D
:1014F000171DA40CB51CC61CD71C2114310409F0FF
:10150000B4CFD0936201C093610181E18093570011
:10151000E89527C08091F200882371F48091E8005B
:101520008B7F8093E80004C08EB3882309F4F0C059
:101530008091E80082FFF8CF6091F1008091610115
:1015400090916201A7D3809161019091620101960F
:1015500090936201809361010150104001151105C3
:10156000C9F680E1B5DD8091E8008B7FC3C0809132
:10157000E800877F8093E8005D9883E080936D01A9
:1015800004C08EB3882309F4C3C08091E80080FFB3
:10159000F8CF80910101893091F08A3069F480910F
:1015A0006601813049F480916101909162018093DC
:1015B000F1009093F1009BC08091700196C0609102
:1015C00063017091640120916101309162016F5F4C
:1015D0007F4F7B01E21AF30A6150704080916601EF
:1015E000882389F5870116950795C901A0916001A7
:1015F000B0E09C01AD011FC08091F200803271F417
:101600008091E8008E7F8093E80004C08EB3882329
:1016100009F47EC08091E80080FFF8CFF901859140
:1016200094918093F1009093F100015010402E5F4F
:101630003F4F4F4F5F4F01151105F1F67093620157
:101640006093610129C0823039F523C08091F20096
:10165000803271F48091E8008E7F8093E80004C0AE
:101660008EB3882309F454C08091E80080FFF8CF3E
:101670000091610110916201C80104D38093F100CF
:101680000F5F1F4F10936201009361010894E108FE
:10169000F108E114F104D1F682E08093010127C042
:1016A0008091E800877F8093E80080915D018093BE
:1016B000F1001092F1001092F1001092F10080916F
:1016C00001018093F1001092F10011C08091E800B7
:1016D000877F8093E80010925D0119C08091E80037
:1016E000877F8093E800809101018093F1008091D1
:1016F000E8008E7F8093E8000AC08091E800877F31
:101700008093E8005D9A5C9A82E08093010187D023
:10171000DF91CF911F910F91FF90EF90DF90CF90CD
:10172000BF90AF909F907F906F905F904F903F9051
:101730002F9008952BD181E085BF15BE089584B701
:10174000877F84BF88E10FB6F89480936000109281
:1017500060000FBE81E085BF82E085BF8AB18063F3
:101760008AB98BB180638BB90CC1E9DF789401C071
:1017700080D2809100018823D9F780915C01882371
:10178000B9F7D8DFE0915E01F0915F010995FA01A8
:10179000923071F0933089F0913029F488E091E033
:1017A00022E130E019C080E090E020E030E014C099
:1017B0008AE191E02BE130E00FC0882339F4809179
:1017C0003501282F30E085E391E006C08091390192
:1017D000282F30E089E391E091838083C901089547
:1017E0008091EB0081608093EB001092ED0060939C
:1017F000EC004093ED008091EE00881F8827881F41
:1018000008951092F4001092F0001092E8001092E7
:10181000ED00EBEEF0E080818E7F80830895809173
:10182000730188238CF403C08EB38823B1F08091B8
:10183000E80082FFF9CF8091E8008B7F8093E80079
:1018400008958EB3882349F08091E80080FFF9CF96
:101850008091E8008E7F8093E80008959C0140917C
:10186000790150917A014617570718F4F90120E0E1
:1018700038C06115710511F0AB01F8CF8091E80017
:101880008E7F8093E80040E050E0F0CF8091E80048
:1018900083FF02C081E008958091E80082FD2DC0A1
:1018A0008EB3882381F18EB3853079F18091E80081
:1018B00080FF17C09091F20006C081918093F100E3
:1018C000415050409F5F4115510511F09032A8F3EF
:1018D00020E0903209F421E08091E8008E7F80932F
:1018E000E8004115510591F6222381F606C08EB31A
:1018F000882349F08EB3853041F08091E80082FF63
:10190000F6CF80E0089582E0089583E0089554D0F2
:1019100056D01EBA1092710184E089BD89B58260EB
:1019200089BD09B400FEFDCF8091D800982F9F7724
:101930009093D80080688093D800809163008E7F58
:10194000809363008091D8008F7D8093D800809130
:10195000E0008E7F8093E0008091E1008E7F809395
:10196000E1008091E20081608093E2008091E100DB
:10197000877F8093E1008091E20088608093E2009D
:101980000895C5DF81E0809372010895C0DFE0EE25
:10199000F0E0808181608083E8EDF0E080818F77E6
:1019A00080830AD00CD019BCE3E6F0E0808181602E
:1019B00080831092720108951092E20008951092AF
:1019C000E10008951F920F920FB60F9211242F93EA
:1019D0003F934F935F936F937F938F939F93AF93B7
:1019E000BF93EF93FF938091E10080FF1BC0809134
:1019F000E20080FF17C08091E1008E7F8093E100BC
:101A00008091E2008E7F8093E2008091E20080610D
:101A10008093E2008091D80080628093D80019BC46
:101A20001EBA26D18091E10084FF29C08091E20096
:101A300084FF25C084E089BD89B5826089BD09B471
:101A400000FEFDCF8091D8008F7D8093D8008091DB
:101A5000E1008F7E8093E1008091E2008F7E809391
:101A6000E2008091E20081608093E2008091710148
:101A7000882311F481E001C084E08EBBF9D080910D
:101A8000E10083FF22C08091E20083FF1EC08091AD
:101A9000E100877F8093E10082E08EBB10927101AC
:101AA0008091E1008E7F8093E1008091E2008E7F43
:101AB0008093E2008091E20080618093E200A1DEE9
:101AC00080E060E042E28CDED3D08091E10082FFD2
:101AD0000AC08091E20082FF06C08091E1008B7F06
:101AE0008093E100C5D0FF91EF91BF91AF919F919D
:101AF0008F917F916F915F914F913F912F910F90B7
:101B00000FBE0F901F9018951F93DF93CF9300D0B7
:101B1000CDB7DEB7E3E7F1E08091F100819381E09A
:101B2000EB37F807C9F79091730180917401853004
:101B300011F1863040F48130B9F0813070F083309B
:101B400009F081C011C0883009F453C0893009F40C
:101B500062C0863009F077C02DC0903809F474C097
:101B6000923809F070C070C0992309F46DC09230AA
:101B700009F069C069C0992309F065C01091750129
:101B80008091E800877F8093E80049DE04C08EB32F
:101B9000882309F459C08091E80080FFF8CF812F95
:101BA0008F7711F492E001C093E09EBB8068809330
:101BB000E3004AC09058923008F045C0809175010A
:101BC0009091760160917701AE014F5F5F4FDFDD4D
:101BD000BC010097C9F18091E800877F8093E800FD
:101BE00089819A813BDE8091E8008B7F8093E800B9
:101BF0002BC0903841F58091E800877F8093E80002
:101C0000809171018093F1008091E8008E7F809334
:101C1000E80005DE19C09923B1F490917501923066
:101C200098F48091E800877F8093E8009093710199
:101C3000F6DD80917101882311F483E001C084E016
:101C40008EBB16D001C040DB8091E80083FF0AC044
:101C50008091EB0080628093EB008091E800877FA9
:101C60008093E8000F900F90CF91DF911F9108951E
:101C700008958EB3882329F08091E80083FF01C086
:101C800043CF0895F999FECF92BD81BDF89A992767
:101C900080B50895262FF999FECF1FBA92BD81BD58
:101CA00020BD0FB6F894FA9AF99A0FBE01960895DE
:041CB000F894FFCFD6
:101CB40001021E958A20DCFB1201100100000020A5
:101CC400EB03F02F00000001000109021B000101D9
:101CD4000080320904000000FE0102000921030013
:101CE40000000C0001040309042003410072006495
:101CF40000750069006E006F00200055006E006FD3
:0C1D0400002000440046005500000000D4
:0400000300001000E9
:00000001FF
